:020000040800F2
:1000000000060020ED000008F5000008F7000008D9
:10001000F9000008FB000008FD00000800000000D7
:10002000000000000000000000000000FF000008C9
:10003000010100080000000003010008050100089C
:100040000701000807010008070100080701000870
:100050000701000807010008070100080701000860
:100060000701000807010008B503000807010008A0
:100070000701000807010008070100080701000840
:100080000701000807010008070100080701000830
:100090000701000807010008070100080701000820
:1000A0000701000807010008070100080701000810
:1000B000070100080701000843010008AB01000820
:1000C000AB010008AB010008AB010008AB01000860
:1000D000AB010008AB010008AB010008AB01000850
:1000E000AB010008C5010008C50100083948804778
:1000F00039480047FEE7FEE7FEE7FEE7FEE7FEE7DA
:10010000FEE7FEE7FEE72DE9FF5F3448016921F0D5
:100110000101016132480168002910D031480168AD
:10012000A1F101010160002909D12F48016841F0C6
:10013000010101602948016821F001010160BDE869
:10014000FF9F2DE9FF5F2948016921F0010101614D
:100150004FF00050016801F10101254A914208BFAA
:1001600000210160234FD7F80080002908BF08F163
:100170000108B8F1070F08BF4FF00008C7F800806A
:100180000D461D4B1C68AC4204D11748016841F074
:100190000101016019480168002904D0184801686C
:1001A00001F101010160BDE8FF9F2DE901501548F3
:1001B0004FF4005101600C4B1C6824F001041C60DA
:1001C000BDE80190FEE700000F481049104A114BAE
:1001D000704700004D030008C90C000800040040EF
:1001E00072000020200000200C0C0140000800409C
:1001F0008051010016000020400000206000002017
:1002000032000020140401400000002000060020FD
:100210000002002000020020704770477047000075
:1002200080B500F001F880BD84B0002003900290FA
:1002300041F20001C4F20201086840F48030086015
:10024000FFE741F20000C4F20200006800F4003051
:100250000290039801300390FFE70299002001907B
:1002600039B9FFE70398B0F5A06018BF01200190ED
:10027000FFE70198C0070028E3D1FFE741F2000043
:10028000C4F2020000688003002803D5FFE70120C4
:10029000029002E000200290FFE70298012851D16D
:1002A000FFE742F20001C4F20201086840F01000CA
:1002B0000860086820F007000860086840F0020045
:1002C000086041F20401C4F202010091086808606C
:1002D00008680860086840F480600860086820F4D6
:1002E0007C100860086840F4E810086041F20001E2
:1002F000C4F20201086840F080700860FFE741F234
:100300000000C4F2020000688001002801D4FFE769
:10031000F5E741F20401C4F20201086820F003008D
:100320000860086840F002000860FFE741F204003E
:10033000C4F20200006800F00C00082801D0FFE7BA
:10034000F4E700E0FFE704B07047000080B541F239
:100350000002C4F20202106840F00100106041F295
:100360000401C4F2020108680023CFF6FF0318401D
:10037000086010684FF6FF73CFF6F6631840106000
:10038000106820F480201060086820F4FE000860E7
:1003900041F20801C4F202014FF41F000860FFF7A8
:1003A0003FFF4EF60851CEF200014FF000600860AA
:1003B00080BD000003B50B48016841F010010160E9
:1003C0000948016881F001010160084801680029BD
:1003D00007D00748016801F10101042908BF002185
:1003E000016003BD140401400C0C014036000020E4
:1003F0002400002007B59249086820F48070086046
:10040000086820F0FF0002F0FF0240EA02000860E6
:100410008B49086840F48070086007BD03B58849BF
:10042000086820F400700860FFF7E4FF03BD03B51F
:100430008349086840F400700860FFF7DBFF03BDE4
:1004400007B57F49086840F40060086000F0CCF808
:100450007B49086820F40060086000F0C5F878491E
:10046000086840F40060086000F0BEF8744908684D
:1004700040F4806008607249086840F48070086049
:100480006F49086820F4806008604FF0C502FFF7EC
:10049000C5FF4FF07F02FFF7CAFF4FF00002FFF7E2
:1004A000C6FF4FF03602FFF7B9FF4FF02802FFF703
:1004B000BEFF4FF03A02FFF7B1FF4FF05502FFF7D2
:1004C000B6FF4FF01102FFF7A9FF00F08DF84FF0D3
:1004D0002902FFF7A3FF00F087F84FF02002FFF793
:1004E0009DFF4FF02C02FFF799FF07BD2DE9FF5F3D
:1004F000A1F10101A4F101044FF02A02FFF78EFFE0
:100500004FEA1022FFF793FF0246FFF790FF4FEAF2
:100510001122FFF78CFF0A46FFF789FF4FF02B02ED
:10052000FFF77CFF4FEA1322FFF781FF1A46FFF720
:100530007EFF4FEA1422FFF77AFF2246FFF777FF8C
:100540004FF02C02FFF76AFFBDE8FF9F2DE91F4423
:100550003B4B1C6824F400441C600B4600F1010175
:1005600003F10104FFF7C2FF4FF02C02FFF756FF23
:100570004FEA1A22FFF75BFF5246FFF758FFBDE82C
:100580001F842DE9FF5F0E4619463346FFF7AEFF85
:10059000091AE41A04FB01F54FEA1A22FFF747FF94
:1005A0005246FFF744FF6D1E002DF5DABDE8FF9FB0
:1005B0002DE9FF5F2349086840F0040008602248E5
:1005C00001684FF011310160204801684FF011318E
:1005D00001601B4908684FF0000040F4FE400860CD
:1005E000FFF72EFFBDE8FF9F2DE90041DFF8608097
:1005F000B8F10108B8F1000FFADABDE800812DE981
:100600000041DFF84C80B8F10208B8F1000FFADAC7
:10061000BDE800812DE90041DFF83480B8F57A7833
:10062000B8F1000FFADABDE800812DE90041DFF8EA
:100630002080B8F16408B8F1000FFADABDE8008153
:100640000C08014018100240000801400408014055
:10065000046018002DE9FF5F1F6804460D464FF047
:10066000200802FB06F981444C4506D30446154494
:1006700002FB0BF989444D451ED24FEAD779B9F1F7
:10068000010F2DE9FF0720462946034613440C4677
:1006900014440CBF4FF0000A4FF6FF7AFFF771FFCA
:1006A000BDE8FF0714444FEA4707B8F10108D8D165
:1006B00003F104031F68D2E7BDE8FF9F2DE9FF5F48
:1006C0008F4B00F0D2F88F4B00F0CFF88C4B00F03E
:1006D000CCF88D4B00F0C9F88C4B00F0C6F88C4B71
:1006E00000F0C3F88A4B00F0C0F8894B00F0BDF869
:1006F000874B00F0BAF8BDE8FF9F2DE9FF5F854BFF
:1007000000F0B3F8844B00F0B0F8804B00F0ADF887
:10071000824B00F0AAF87C4B00F0A7F87C4B00F06D
:10072000A4F87B4B00F0A1F8794B00F09EF8784BD1
:1007300000F09BF8BDE8FF9F2DE9FF5F784B00F0CC
:1007400094F8704B00F091F8764B00F08EF8744BF3
:1007500000F08BF8744B00F088F86D4B00F085F8D2
:100760006B4B00F082F86A4B00F07FF8684B00F0AA
:100770007CF8BDE8FF9F2DE9FF5F6C4B00F075F83A
:10078000644B00F072F8674B00F06FF8684B00F0B4
:100790006CF8684B00F069F8594B00F066F85D4B57
:1007A00000F063F85E4B00F060F8634B00F05DF81A
:1007B000BDE8FF9F2DE9FF5F5C4B00F056F85F4BF3
:1007C00000F053F85E4B00F050F8BDE8FF9F2DE9B4
:1007D000FF5F4E4B00F049F8524B00F046F8584B83
:1007E00000F043F8BDE8FF9F2DE9FF5F494B00F0A3
:1007F0003CF8524B00F039F8484B00F036F8BDE8B1
:10080000FF9F2DE9FF5F4B4B00F02FF8434B00F0AB
:100810002CF84C4B00F029F8BDE8FF9F2DE9FF5F55
:100820003C4B00F022F8444B00F01FF8434B00F023
:100830001CF8BDE8FF9F2DE9FF5F434B00F015F862
:10084000314B00F012F8344B00F00FF8BDE8FF9F79
:100850002DE9FF5F354B00F008F8294B00F005F853
:100860002C4B00F002F8BDE8FF9F00B54FF00906E1
:100870004FF00C0BFFF7EEFE4FF0090402FB04F9FA
:10088000814409EB050000BD2DE9FF5F4FF0040531
:100890004FF009064FF00C0B224B002C08BFFFF75E
:1008A000D9FE2A4B012C08BFFFF7D4FE284B022C9F
:1008B00008BFFFF7CFFE274B032C08BFFFF7CAFE88
:1008C000254B042C08BFFFF7C5FE244B052C08BFA1
:1008D000FFF7C0FE224B062C08BFFFF7BBFE214BE3
:1008E000072C08BFFFF7B6FE1F4B082C08BFFFF709
:1008F000B1FE1E4B092C08BFFFF7ACFEBDE8FF9F01
:1009000020240008D024000820250008E024000846
:10091000B025000840250008A02400086024000835
:100920004024000850260008C02400083025000894
:1009300000250008702500089024000850250008B4
:10094000F024000850240008702400080026000845
:100950004026000830260008E0250008D0250008C1
:100960002026000810260008C0250008F0250008F1
:100970002DE9FF5FC74AD2F800804FF4C8704FF0EE
:1009800019014FF002024FF00405B8F1000F08BF43
:10099000FFF75EFFB8F1010F08BFFFF70BFFB8F1DB
:1009A000020F08BFFFF713FFB8F1030F08BFFFF7EF
:1009B0001BFFB8F1040F08BFFFF723FFB8F1050FC5
:1009C00008BFFFF72BFFB8F1060F08BFFFF733FF93
:1009D000BDE8FF9F2DE9FF5F9446DCF800104FF063
:1009E0003C02B1FBF2F303FB02F4A1EB0405AA4EB7
:1009F000D6F8008045451CD035604FF00A02B5FBA3
:100A0000F2F634464FF0030240F29F104FF0A4017B
:100A1000FFF73AFF4FF00A0204FB02F7A5EB0708C5
:100A2000444640F2BD104FF0A4014FF00302FFF71F
:100A30002BFF4FF03C02B3FBF2F909FB02FAA3EBE8
:100A40000A0BDFF85882D8F80060B3451DD0C8F80B
:100A500000B04FF00A02BBFBF2FC64464FF0E1002D
:100A60004FF05E014FF00902FFF70EFF4FF00A0250
:100A70000CFB02F8ABEB080A544640F23B104FF077
:100A80005E014FF00902FFF7FFFEDFF81482D8F88D
:100A90000060B1451CD0C8F800B04FF00A02B9FBA5
:100AA000F2FA54464FF019004FF05E014FF0090280
:100AB000FFF7EAFE4FF00A020AFB02FBA9EB0B0468
:100AC0004FF073004FF05E014FF00902FFF7DCFEBC
:100AD000FFF74EFFBDE8FF9F2DE9FF5F4FF00902D2
:100AE0004FF000044FF019004FF05E01FFF7CCFE0D
:100AF0004FF000044FF073004FF05E01FFF7C4FEAB
:100B00004FF000044FF0E1004FF05E01FFF7BCFE34
:100B10004FF0000440F23B104FF05E01FFF7B4FECF
:100B200040F29F104FF0A4014FF003024FF0000479
:100B3000FFF7AAFE40F2BD104FF0A4014FF00004F1
:100B4000FFF7A2FE4FF4C8704FF0BE014FF0010254
:100B50004FF00A064FF00A0B524BFFF77BFD4FF0A8
:100B6000C9004FF074014FF002024FF00A064FF037
:100B70000A0B4C4BFFF76EFD4FF0C9004FF0A00180
:100B80004FF002024FF00A064FF00A0B454BFFF7F9
:100B900061FDFFF7EDFEBDE8FF9F2DE9FF5F424BD2
:100BA000FFF763FE414BFFF760FE414BFFF75DFE31
:100BB000404BFFF75AFEBDE8FF9F2DE9FF5F3E481F
:100BC00005684FF00A03B5FBF3F214464FF0030239
:100BD0004FF019004FF48771FFF756FE4FF00A03EC
:100BE00004FB03F7A5EB070844464FF003024FF060
:100BF00037004FF48771FFF747FEBDE8FF9F2DE9EF
:100C0000FF5F2E4BFFF731FE2D4BFFF72EFE284BDB
:100C1000FFF72BFEBDE8FF9F2DE9FF5F2948056820
:100C20004FF00A03B5FBF3F214464FF003024FF402
:100C3000B4704FF48771FFF727FE4FF00A0304FBEF
:100C400003F7A5EB070844464FF003024FF4C370C7
:100C50004FF48771FFF718FEBDE8FF9F2DE9FF5F96
:100C6000FFF7ABFFFFF7D8FF00F062FD08F0FF01D0
:100C7000DFF850A0CAF800104FEA184202F0FF0255
:100C8000DFF834A0CAF80020FFF797FFFFF7C4FF92
:100C9000BDE8FF9F16000020120000200800002081
:100CA0000400002060260008402500086024000899
:100CB000E0240008002500084400002090240008DB
:100CC00050250008480000204FF0005108684FF000
:100CD00000000860604908684FF0000008605F4944
:100CE00008684FF0000008605D4908684FF0000098
:100CF00008605C4908684FF0000008605A490868BD
:100D00004FF000000860594908684FF00000086083
:100D1000574908684FF000000860564908684FF0CE
:100D200000000860544908684FF00100086053490A
:100D300008684FF000000860514908684FF0000053
:100D40000860504908684FF0000008604E49086884
:100D50004FF0000008604D4908684FF0000008603F
:100D60004B4908684FF0000008604A4908684FF096
:100D700000000860454908684FF0000008604649D7
:100D800008684FF00000086000F01EF900F0D6F887
:100D9000FFF70EFC00F0AFFC00F050F93F4801688F
:100DA00041F0080101603E48016821F00F0141F067
:100DB000030101604FF000004FF4F0734FF00001A9
:100DC0004FF4A0744FF6FF7AFFF7DBFB4FF05D00A6
:100DD0004FF482714FF002024FF019064FF0190BD9
:100DE000304BFFF737FC4FF4D2704FF487714FF060
:100DF00002024FF01A064FF0140B2B4BFFF72AFCA0
:100E00004FF0F0004FF019014FF001024FF01906BA
:100E10004FF0190B254BFFF71DFCFFF75DFE4FF060
:100E200019004FF0E6014FF002024FF00405FFF702
:100E3000B4FE4FF4B4704FF0E6014FF002024FF0F1
:100E40000405FFF7DCFEFFF7B8FEFFF7E5FEFFF74E
:100E500005FF01F04BF9FAE704000020080000202C
:100E60001200002020000020240000203600002076
:100E700044000020520000205600002060000020A6
:100E800032000020400000206400002068000020A4
:100E9000720000207600002016000020181002408A
:100EA000000C01407827000834270008702600084D
:100EB0002DE9FF5F1C48016841F0C05101601B48EB
:100EC000016841F480710160016811F4807FFBD0FA
:100ED0001748016841F001010160016811F0020F3B
:100EE000FBD0016821F4407141F48071016041F44C
:100EF000004101600F48016811F0200FFBD041F064
:100F0000100101600C484FF00001816047F6FF714D
:100F1000C1600848016821F010010160016811F00A
:100F2000200FFBD0BDE8FF9F1C1002400070004066
:100F30002010024004280040002800400FB532482D
:100F4000016841F0080101603048016821F00F019B
:100F500041F0010101602E48016841F0010101608A
:100F60002C48016841F0010101604FF080404FF0D2
:100F7000480181624FF6FF71C1624FF08040016805
:100F800041F0010101600FBD2DE9FF5F21480168BB
:100F900041F00201016020484FF47A4101601F488E
:100FA00040F2654101601E48016841F001010160A5
:100FB0001C48016841F0005101601B48016841F084
:100FC00001010160BDE8FF9F2DE9FF5F1148016845
:100FD00041F00401016015484FF47A410160144862
:100FE00040F2654101601348016841F00101016070
:100FF0000C48016841F0804101600F48016841F0F0
:1010000001010160BDE8FF9F18100240000C014083
:101010000C0C01401C100240280400402C0400402D
:101020000C04004000E100E00004004028080040FB
:101030002C0800400C080040000800402DE9FF5F2C
:101040001748016841F0010141F0080101601548AD
:10105000016821F4700141F4000101601248016847
:1010600021F4005101601148016821F0F00141F0C4
:10107000100101600E48016841F4005101600D4803
:10108000016841F4005101600B48016821F40051EE
:1010900001600A48016841F480710160BDE8FF9F6A
:1010A00018100240040C01400C0C014014000140D7
:1010B000000401400C0401400804014004E100E088
:1010C00007B59249086820F480700860086820F02D
:1010D000FF0002F0FF0240EA020008608B49086846
:1010E00040F48070086007BD03B58849086820F4A3
:1010F00000700860FFF7E4FF03BD03B5834908688B
:1011000040F400700860FFF7DBFF03BD07B57F49BF
:10111000086840F40060086000F0CCF87B4908687B
:1011200020F40060086000F0C5F87849086840F4D1
:101130000060086000F0BEF87449086840F4806000
:1011400008607249086840F4807008606F49086858
:1011500020F4806008604FF0C502FFF7C5FF4FF034
:101160007F02FFF7CAFF4FF00002FFF7C6FF4FF004
:101170003602FFF7B9FF4FF02802FFF7BEFF4FF02E
:101180003A02FFF7B1FF4FF05502FFF7B6FF4FF0FD
:101190001102FFF7A9FF00F08DF84FF02902FFF7C9
:1011A000A3FF00F087F84FF02002FFF79DFF4FF0FC
:1011B0002C02FFF799FF07BD2DE9FF5FA1F10101A7
:1011C000A4F101044FF02A02FFF78EFF4FEA10222C
:1011D000FFF793FF0246FFF790FF4FEA1122FFF758
:1011E0008CFF0A46FFF789FF4FF02B02FFF77CFFC9
:1011F0004FEA1322FFF781FF1A46FFF77EFF4FEAFF
:101200001422FFF77AFF2246FFF777FF4FF02C02F8
:10121000FFF76AFFBDE8FF9F2DE91F443B4B1C68A9
:1012200024F400441C600B4600F1010103F10104A9
:10123000FFF7C2FF4FF02C02FFF756FF4FEA1A22CA
:10124000FFF75BFF5246FFF758FFBDE81F842DE90B
:10125000FF5F0E4619463346FFF7AEFF091AE41A40
:1012600004FB01F54FEA1A22FFF747FF5246FFF74A
:1012700044FF6D1E002DF5DABDE8FF9F2DE9FF5FED
:101280002349086840F004000860224801684FF0D4
:1012900011310160204801684FF0113101601B4994
:1012A00008684FF0000040F4FE400860FFF72EFF92
:1012B000BDE8FF9F2DE90041DFF86080B8F101082B
:1012C000B8F1000FFADABDE800812DE90041DFF83E
:1012D0004C80B8F10208B8F1000FFADABDE80081DD
:1012E0002DE90041DFF83480B8F57A78B8F1000FC5
:1012F000FADABDE800812DE90041DFF82080B8F17D
:101300006408B8F1000FFADABDE800810C0801406A
:101310001810024000080140040801400460180051
:101320002DE9FF5F1F6804460D464FF0200802FBC1
:1013300006F981444C4506D30446154402FB0BF9DB
:1013400089444D451ED24FEAD779B9F1010F2DE9F5
:10135000FF0720462946034613440C4614440CBF9D
:101360004FF0000A4FF6FF7AFFF771FFBDE8FF0765
:1013700014444FEA4707B8F10108D8D103F1040338
:101380001F68D2E7BDE8FF9F2DE9FF5F8F4B00F09C
:10139000D2F88F4B00F0CFF88C4B00F0CCF88D4B8F
:1013A00000F0C9F88C4B00F0C6F88C4B00F0C3F885
:1013B0008A4B00F0C0F8894B00F0BDF8874B00F075
:1013C000BAF8BDE8FF9F2DE9FF5F854B00F0B3F849
:1013D000844B00F0B0F8804B00F0ADF8824B00F089
:1013E000AAF87C4B00F0A7F87C4B00F0A4F87B4BEC
:1013F00000F0A1F8794B00F09EF8784B00F09BF8D4
:10140000BDE8FF9F2DE9FF5F784B00F094F8704B2B
:1014100000F091F8764B00F08EF8744B00F08BF8EA
:10142000744B00F088F86D4B00F085F86B4B00F0C2
:1014300082F86A4B00F07FF8684B00F07CF8BDE85A
:10144000FF9F2DE9FF5F6C4B00F075F8644B00F0D7
:1014500072F8674B00F06FF8684B00F06CF8684B5F
:1014600000F069F8594B00F066F85D4B00F063F846
:101470005E4B00F060F8634B00F05DF8BDE8FF9F45
:101480002DE9FF5F5C4B00F056F85F4B00F053F81E
:101490005E4B00F050F8BDE8FF9F2DE9FF5F4E4B1B
:1014A00000F049F8524B00F046F8584B00F043F872
:1014B000BDE8FF9F2DE9FF5F494B00F03CF8524B20
:1014C00000F039F8484B00F036F8BDE8FF9F2DE9F1
:1014D000FF5F4B4B00F02FF8434B00F02CF84C4BC8
:1014E00000F029F8BDE8FF9F2DE9FF5F3C4B00F0BD
:1014F00022F8444B00F01FF8434B00F01CF8BDE805
:10150000FF9F2DE9FF5F434B00F015F8314B00F0D2
:1015100012F8344B00F00FF8BDE8FF9F2DE9FF5F94
:10152000354B00F008F8294B00F005F82C4B00F083
:1015300002F8BDE8FF9F00B54FF009064FF00C0B15
:10154000FFF7EEFE4FF0090402FB04F9814409EBBA
:10155000050000BD2DE9FF5F4FF004054FF00906BF
:101560004FF00C0B224B002C08BFFFF7D9FE2A4B83
:10157000012C08BFFFF7D4FE284B022C08BFFFF751
:10158000CFFE274B032C08BFFFF7CAFE254B042CC8
:1015900008BFFFF7C5FE244B052C08BFFFF7C0FEB0
:1015A000224B062C08BFFFF7BBFE214B072C08BFC0
:1015B000FFF7B6FE1F4B082C08BFFFF7B1FE1E4B0E
:1015C000092C08BFFFF7ACFEBDE8FF9F48340008B8
:1015D000F83400084835000808350008D8350008F8
:1015E00068350008C83400088834000868340008EA
:1015F00078360008E8340008583500082835000817
:1016000098350008B8340008783500081835000807
:101610007834000898340008283600086836000836
:101620005836000808360008F83500084836000823
:1016300038360008E8350008183600082DE9FF5F45
:101640003348016841F0080141F00101016031486F
:10165000016821F4702141F4002101602E480168E5
:1016600021F00F0141F0010101602C48016841F0B7
:10167000100101602A48016841F010010160294809
:10168000016821F0100101602748016841F4806180
:101690000160BDE8FF9F2DE9FF5F1E48016821F44E
:1016A000700141F4000101602048016841F020010F
:1016B0000160BDE8FF9F2DE9FF5F1648016821F03A
:1016C000706141F0006101601848016841F040011B
:1016D0000160BDE8FF9F2DE9FF5F0E48016821F022
:1016E000704141F0004101601048016841F0800103
:1016F0000160BDE8FF9F2DE9FF5FFFF79FFFFFF748
:10170000CAFFFFF7D8FFFFF7E6FFBDE8FF9F000025
:1017100018100240000C01400C0001400004014080
:10172000080401400C04014000E100E00C0C014001
:10173000FFB53648016821F0F00141F03001016049
:101740003348016821F40071016044F2506200F0F6
:1017500050F82F48016841F4007101604FF01E02FB
:1017600000F047F82948016821F0F00141F08001BC
:1017700001604FF0280200F03CF82648016811F49F
:10178000007FFAD14FF0500200F033F82148016891
:1017900011F4007FFAD04FF005064FF000074FF02C
:1017A00000084FF000044FF008051A48016811F4D2
:1017B000007FFAD11748016811F4007FFAD04FF08A
:1017C00000021448016802F1010211F4007FF8D10F
:1017D0004FEA44046E2A01D944F001046D1EE4D19D
:1017E00004FA07F448EA040807F10807761ED8D17E
:1017F000FFBD3FB54FF08040436A456AAB42FCD025
:10180000521E002A00D0F8E73FBD0000040C014042
:101810000C0C0140080C014007B59249086820F4FF
:1018200080700860086820F0FF0002F0FF0240EAC4
:10183000020008608B49086840F48070086007BDAA
:1018400003B58849086820F400700860FFF7E4FFDA
:1018500003BD03B58349086840F400700860FFF7D2
:10186000DBFF03BD07B57F49086840F400600860EE
:1018700000F0CCF87B49086820F40060086000F0B4
:10188000C5F87849086840F40060086000F0BEF8C8
:101890007449086840F4806008607249086840F440
:1018A000807008606F49086820F4806008604FF01D
:1018B000C502FFF7C5FF4FF07F02FFF7CAFF4FF0E9
:1018C0000002FFF7C6FF4FF03602FFF7B9FF4FF0F7
:1018D0002802FFF7BEFF4FF03A02FFF7B1FF4FF0CB
:1018E0005502FFF7B6FF4FF01102FFF7A9FF00F016
:1018F0008DF84FF02902FFF7A3FF00F087F84FF0B3
:101900002002FFF79DFF4FF02C02FFF799FF07BD64
:101910002DE9FF5FA1F10101A4F101044FF02A02BA
:10192000FFF78EFF4FEA1022FFF793FF0246FFF703
:1019300090FF4FEA1122FFF78CFF0A46FFF789FF5D
:101940004FF02B02FFF77CFF4FEA1322FFF781FFD6
:101950001A46FFF77EFF4FEA1422FFF77AFF22466E
:10196000FFF777FF4FF02C02FFF76AFFBDE8FF9FFC
:101970002DE91F443B4B1C6824F400441C600B46BB
:1019800000F1010103F10104FFF7C2FF4FF02C0247
:10199000FFF756FF4FEA1A22FFF75BFF5246FFF7A9
:1019A00058FFBDE81F842DE9FF5F0E4619463346F8
:1019B000FFF7AEFF091AE41A04FB01F54FEA1A22F9
:1019C000FFF747FF5246FFF744FF6D1E002DF5DA83
:1019D000BDE8FF9F2DE9FF5F2349086840F0040040
:1019E0000860224801684FF0113101602048016809
:1019F0004FF0113101601B4908684FF0000040F4BE
:101A0000FE400860FFF72EFFBDE8FF9F2DE9004173
:101A1000DFF86080B8F10108B8F1000FFADABDE82C
:101A200000812DE90041DFF84C80B8F10208B8F1DF
:101A3000000FFADABDE800812DE90041DFF83480BB
:101A4000B8F57A78B8F1000FFADABDE800812DE92F
:101A50000041DFF82080B8F16408B8F1000FFADA2D
:101A6000BDE800810C080140181002400008014048
:101A700004080140046018002DE9FF5F1F68044658
:101A80000D464FF0200802FB06F981444C4506D371
:101A90000446154402FB0BF989444D451ED24FEA1A
:101AA000D779B9F1010F2DE9FF07204629460346F2
:101AB00013440C4614440CBF4FF0000A4FF6FF7A53
:101AC000FFF771FFBDE8FF0714444FEA4707B8F17D
:101AD0000108D8D103F104031F68D2E7BDE8FF9FD6
:101AE0002DE9FF5F8F4B00F0D2F88F4B00F0CFF85D
:101AF0008C4B00F0CCF88D4B00F0C9F88C4B00F00B
:101B0000C6F88C4B00F0C3F88A4B00F0C0F8894B44
:101B100000F0BDF8874B00F0BAF8BDE8FF9F2DE953
:101B2000FF5F854B00F0B3F8844B00F0B0F8804BBA
:101B300000F0ADF8824B00F0AAF87C4B00F0A7F85B
:101B40007C4B00F0A4F87B4B00F0A1F8794B00F03F
:101B50009EF8784B00F09BF8BDE8FF9F2DE9FF5FF2
:101B6000784B00F094F8704B00F091F8764B00F051
:101B70008EF8744B00F08BF8744B00F088F86D4BC6
:101B800000F085F86B4B00F082F86A4B00F07FF8AC
:101B9000684B00F07CF8BDE8FF9F2DE9FF5F6C4BC0
:101BA00000F075F8644B00F072F8674B00F06FF8C6
:101BB000684B00F06CF8684B00F069F8594B00F086
:101BC00066F85D4B00F063F85E4B00F060F8634B25
:101BD00000F05DF8BDE8FF9F2DE9FF5F5C4B00F072
:101BE00056F85F4B00F053F85E4B00F050F8BDE83C
:101BF000FF9F2DE9FF5F4E4B00F049F8524B00F07C
:101C000046F8584B00F043F8BDE8FF9F2DE9FF5F11
:101C1000494B00F03CF8524B00F039F8484B00F0CB
:101C200036F8BDE8FF9F2DE9FF5F4B4B00F02FF822
:101C3000434B00F02CF84C4B00F029F8BDE8FF9F17
:101C40002DE9FF5F3C4B00F022F8444B00F01FF8F9
:101C5000434B00F01CF8BDE8FF9F2DE9FF5F434BAD
:101C600000F015F8314B00F012F8344B00F00FF88B
:101C7000BDE8FF9F2DE9FF5F354B00F008F8294BC9
:101C800000F005F82C4B00F002F8BDE8FF9F00B50E
:101C90004FF009064FF00C0BFFF7EEFE4FF0090472
:101CA00002FB04F9814409EB050000BD2DE9FF5F4B
:101CB0004FF004054FF009064FF00C0B224B002C9F
:101CC00008BFFFF7D9FE2A4B012C08BFFFF7D4FE4F
:101CD000284B022C08BFFFF7CFFE274B032C08BF71
:101CE000FFF7CAFE254B042C08BFFFF7C5FE244BA7
:101CF000052C08BFFFF7C0FE224B062C08BFFFF7DC
:101D0000BBFE214B072C08BFFFF7B6FE1F4B082C6C
:101D100008BFFFF7B1FE1E4B092C08BFFFF7ACFE52
:101D2000BDE8FF9F684300081844000868440008A5
:101D300028440008F844000888440008E8430008E4
:101D4000A843000888430008984500080844000894
:101D50007844000848440008B8440008D843000804
:101D6000984400083844000898430008B843000825
:101D700048450008884500087845000828450008BF
:101D8000184500086845000858450008084500083F
:101D9000384500082DE9FF5FC74AD2F800804FF4AC
:101DA000C8704FF019014FF002024FF00405B8F16E
:101DB000000F08BFFFF75EFFB8F1010F08BFFFF784
:101DC0000BFFB8F1020F08BFFFF713FFB8F1030FC5
:101DD00008BFFFF71BFFB8F1040F08BFFFF723FF91
:101DE000B8F1050F08BFFFF72BFFB8F1060F08BFCA
:101DF000FFF733FFBDE8FF9F2DE9FF5F9446DCF856
:101E000000104FF03C02B1FBF2F303FB02F4A1EB34
:101E10000405AA4ED6F8008045451CD035604FF029
:101E20000A02B5FBF2F634464FF0030240F29F106F
:101E30004FF0A401FFF73AFF4FF00A0204FB02F74C
:101E4000A5EB0708444640F2BD104FF0A4014FF047
:101E50000302FFF72BFF4FF03C02B3FBF2F909FB43
:101E600002FAA3EB0A0BDFF85882D8F80060B345FA
:101E70001DD0C8F800B04FF00A02BBFBF2FC64466C
:101E80004FF0E1004FF05E014FF00902FFF70EFF47
:101E90004FF00A020CFB02F8ABEB080A544640F282
:101EA0003B104FF05E014FF00902FFF7FFFEDFF835
:101EB0001482D8F80060B1451CD0C8F800B04FF0CB
:101EC0000A02B9FBF2FA54464FF019004FF05E01D6
:101ED0004FF00902FFF7EAFE4FF00A020AFB02FB8D
:101EE000A9EB0B044FF073004FF05E014FF00902B5
:101EF000FFF7DCFEFFF74EFFBDE8FF9F2DE9FF5F18
:101F00004FF009024FF000044FF019004FF05E014E
:101F1000FFF7CCFE4FF000044FF073004FF05E016E
:101F2000FFF7C4FE4FF000044FF0E1004FF05E01F8
:101F3000FFF7BCFE4FF0000440F23B104FF05E0193
:101F4000FFF7B4FE40F29F104FF0A4014FF00302E0
:101F50004FF00004FFF7AAFE40F2BD104FF0A401BD
:101F60004FF00004FFF7A2FE4FF4C8704FF0BE011F
:101F70004FF001024FF00A064FF00A0B524BFFF7E9
:101F80007BFD4FF0C9004FF074014FF002024FF09B
:101F90000A064FF00A0B4C4BFFF76EFD4FF0C900DD
:101FA0004FF0A0014FF002024FF00A064FF00A0B6B
:101FB000454BFFF761FDFFF7EDFEBDE8FF9F2DE903
:101FC000FF5F424BFFF763FE414BFFF760FE414B63
:101FD000FFF75DFE404BFFF75AFEBDE8FF9F2DE97E
:101FE000FF5F3E4805684FF00A03B5FBF3F2144665
:101FF0004FF003024FF019004FF48771FFF756FEC0
:102000004FF00A0304FB03F7A5EB070844464FF023
:1020100003024FF037004FF48771FFF747FEBDE82A
:10202000FF9F2DE9FF5F2E4BFFF731FE2D4BFFF792
:102030002EFE284BFFF72BFEBDE8FF9F2DE9FF5F2B
:10204000294805684FF00A03B5FBF3F214464FF038
:1020500003024FF0F0004FF48771FFF727FE4FF0B7
:102060000A0304FB03F7A5EB070844464FF00302FD
:102070004FF487704FF48771FFF718FEBDE8FF9F9C
:102080002DE9FF5FFFF7ABFFFFF7D8FFFFF750FB2E
:1020900008F0FF01DFF850A0CAF800104FEA18421C
:1020A00002F0FF02DFF834A0CAF80020FFF797FF24
:1020B000FFF7C4FFBDE8FF9F1600002012000020BC
:1020C0000800002004000020A845000888440008FB
:1020D000A8430008284400084844000844000020A1
:1020E000D843000898440008480000202DE9FF5F0D
:1020F000BE49D1F80080B8F1000F08BF00F011F818
:10210000B8F1010F08BF00F02FF8B8F1020F08BFB7
:1021100000F04CF8B8F1030F08BF00F069F8BDE813
:10212000FF9F2DE9FF5FB24B1C68B248016811F0B8
:10213000400F08BF84F001041C604FF019004FF0FD
:1021400019014FF002024FF00405FFF707FDA84800
:102150000168012902D018BF00F085F84FF0005245
:10216000FFF74AFEBDE8FF9F2DE9FF5FA24B1C6809
:10217000A048016811F0400F08BF84F001041C6002
:102180004FF019004FF019014FF002024FF0040513
:10219000FFF7A6FC98480168012902D018BF00F09B
:1021A000A9F8964AFFF728FEBDE8FF9F2DE9FF5FDB
:1021B000934B1C688F48016811F0400F08BF84F0F2
:1021C00001041C604FF019004FF019014FF002029A
:1021D0004FF00405FFF7A3FC89480168012902D0EC
:1021E00018BF00F0C3F8874AFFF706FEBDE8FF9F5F
:1021F0002DE9FF5F4FF019004FF019014FF0020277
:102200004FF00405FFF7C9FC7F4A1368794801685D
:1022100011F0400F08BF83F001031360012B09D1B7
:102220007A48016881F001010160012B08BF002399
:10223000012BFFD06F48016811F0200F08D17448BE
:102240004FF000020260704A13684FF00003136001
:102250006F4AFFF7D1FD6748016811F0000F00D009
:10226000D2E7BDE8FF9F2DE9FF5F6248016811F0EA
:10227000400F05D1674801684FF00101016032E06D
:102280005C48016811F0200F0AD14FF0005001683E
:1022900001F13C010160DFF880B159451ED30ED831
:1022A0005448016811F0800FDFD14FF000500168F1
:1022B00001F561610160DFF860B159450ED3DFF8C7
:1022C00058B159450AD3A1EB0B010160534D2E685B
:1022D00006F10106072E08BF00262E604FF00052BF
:1022E000FFF78AFDC1E7424801684FF00101016034
:1022F000BDE8FF9F2DE9FF5F3E48016811F0400FE8
:1023000005D13D4801684FF00101016027E03948DF
:10231000016811F0200F09D13848016801F13C0132
:102320000160DFF8F4B0594515D30DD83148016884
:1023300011F0800FE0D13148016801F56161016061
:10234000DFF8D4B0594506D3DFF8CCB0594502D3F5
:10235000A1EB0B010160294AFFF74EFDCCE72648AF
:1023600001684FF001010160BDE8FF9F2DE9FF5FAB
:10237000FFF7C4FD1F48016811F0400F05D1204848
:1023800001684FF00101016027E01A48016811F06F
:10239000200F09D11B48016801F101010160DFF83C
:1023A00078B0594515D30DE01248016811F0800F3F
:1023B000E0D11448016801F13C010160DFF858B038
:1023C000594506D3DFF850B0594502D3A1EB0B01B4
:1023D00001600C4AFFF710FDCCE7094801684FF097
:1023E00001010160FEF7D0FDBDE8FF9F2400002041
:1023F00064000020080C014068000020400000201C
:102400007200002020000020600000200C0C014021
:10241000320000203600002080510100160000200C
:1024200078F07F7FFFFF1F3CF0E0C1830000307831
:1024300078F07FFFFDFB1F3CFFE0C1830000E0FF61
:1024400078F07F7F0103060CFF60C0800000E0EFA2
:10245000F8F07FFF070F1E3CFFE1C1830000E0FFA3
:1024600018F0FFFFF9F3070C3F60C0800000F0FF99
:1024700018F0FFFFF9F3070C3060C080000000186F
:1024800018F0FF7F3F7B060CFFE0C19B0000E0EFF0
:1024900078F0E0C1FFFF1F3CF0E0C183000030781E
:1024A0000103061E3060C08003060C180000C00344
:1024B0008001030F183060C03F63060C0000808F5E
:1024C0009BB3E3C3E183878FB063CEB8000030F8DD
:1024D000183060C00103060C7F60C0800000F0FF70
:1024E0007CF0E0C177FF7F7FF0E0C193000030789F
:1024F0007FFCF0C11F7FDE3DF0E0C1870000307837
:1025000078F07FFFFDFF1F3C3060C08000000018A6
:1025100078F07F7F070F1E3CBFE3C3830000B0EF5E
:1025200078F07FFFFDFF1F3C3167DCF0000070D8C2
:1025300018F0FF7FFEF9070CFF8001030000E0FFA9
:1025400021D3BF7F3060C08003060C1800008001DB
:1025500078F0E0C1070F1E3CFFE0C1830000E0EF10
:1025600078F0E0C1070F1E3C8FBFE383000080833B
:1025700078F0E0C1FFEF9E3CF0E0E3EF0000307840
:10258000C7DDF1C170E0C0C1F071777C0000107050
:10259000C3CCB0613060E0C103060C1800008001BC
:1025A00060C0FFFF707070703F7070700000F0FFCF
:1025B000FFFFFFFFFFFFFFFFFFFFFFFFFFFFFFFF2B
:1025C00078F07F7FFDF91B3CFFE0C1830000E0EF66
:1025D00018F0FFFFFEF9070CFF8001030000E0FF89
:1025E000D8B061C3FEFD376C80010306000060C0F7
:1025F00078F07F7FFEFD1F3CFF8001030000E0FFBD
:1026000003061C3860C080010F0C183000008007E2
:1026100060C0BF7F1830306003060C0C00008001E2
:1026200018F0FF7FFFFF070CFFE0C1830000E0EF21
:1026300060C07FFFFCF81930FF8001030000E0FF5D
:1026400060C07FFFFFFF1B303F60C0800000F0FFD5
:1026500078F07F7F070F1E3CFFE0C1830000E0EFB2
:10266000F1830700E79F7FFE001EFCF800000000DA
:1026700007000000C00738000FC0073EE3E3C7872C
:102680008F71FC8FFF8F18FFF0FF0FC407F8F3075F
:10269000FC03FEF97FFE03FFE03FFFC13FF08FFF29
:1026A000F91FF0E3FCFF07F800FCFF01FF00FEFF4D
:1026B000FEEF80FF70FE73E00000000000000000ED
:1026C000010C1E000748CCF0002019C61C9E2410E7
:1026D00071C08C4004000202131F08084C7C30209B
:1026E00032017880C8C4010020130700804C00002C
:1026F0000032F10100C8C4070020130000804C1C08
:10270000000032711F00C8047C0020130600C0CCFA
:1027100031008031CC0000E3330300CCCC0C00301E
:10272000E61900C03030000080730000007800001F
:10273000000000000F00000EFC0738E007EF011E4C
:10274000C0E3F1800FE0783CC703781ECF7B00BC6C
:102750009FF71F1CF8CFF9C300DEF3381EC0E33922
:102760001E0FF0788FC7033C80F7E0011CE03F703C
:102770000000F007000000703C4078002100506627
:102780008910C72980408883E2412004680130D045
:1027900000B4380E00005A1C160F002D400B0080AC
:1027A00000A0C5010100D0E2B679006880180100E0
:1027B00000409E0024002049C81300900008040037
:1027C00000009C03000000780000000000000000F2
:1027D00000000000000000000000000000000000F9
:1027E00000000000000000000000000000000000E9
:1027F00000000000000000000000000000000000D9
:1028000000000000000000000000000000000000C8
:1028100000000000000000000000000000000000B8
:1028200000000000000000000000000000000000A8
:102830000000000000000000000000000000000098
:102840000000000000000000000000000000000088
:102850000000000000000000000000000000000078
:102860000000000000000000000000000000000068
:102870000000000000000000000000000000000058
:102880000000000000000000000000000000000048
:102890000000000000000000000000000000000038
:1028A0000000000000000000000000000000000028
:1028B0000000000000000000000000000000000018
:1028C0000000000000000000000000000000000008
:1028D00000000000000000000000000000000000F8
:1028E00000C0010000000000000000000000000027
:1028F0000000000000000000C00300000000000015
:1029000000000000000000000000000000000000C7
:1029100001000000000000C00000000000000000F6
:102920000000000000000000000000000000F013A4
:1029300000000000000000000000001C000000007B
:102940000000000000F00F00000000000000000088
:10295000000018000000000000000000E01F000060
:102960000000000000000000000000000000000067
:10297000000000003F000000000000EC000200002A
:10298000660F0000000000000000000000000000D2
:102990000000FF7F020006000F000000000080FF23
:1029A000000000000000000000FE7F0000060000A4
:1029B000000000020000FF0F000000000000000007
:1029C000FEFF0000060000000000021E00FF0700DE
:1029D0000000000000000000FF010000000020FED9
:1029E00000C23F06FF87000000000010000000004A
:1029F0000300000000E0E1FF00000000FF01000014
:102A0000000010FF0000000000000000FDE1FF1FBB
:102A1000C00400007F0000020010FFFF0000000063
:102A20000000000003000000000000FD0000204046
:102A300008FFFF7F000000000000000000C0000051
:102A400000FCFC0300043F02FDFFBF3F0000008FBD
:102A50000000000080000000FC3F0200463E020033
:102A6000FFFF7F00000009F30000000000000000ED
:102A70007F0000402E0200FCFF3F00040001F0FF39
:102A800000000000000000000000FF00F47FFC3F99
:102A90007F3E800E01F8FFFF0000004000000000B4
:102AA00000F30000FFFF7F00FFFFFFFFFCFFFFFFC1
:102AB0000000F00100000000F8000000FF7F0000AF
:102AC000FFFFFFFFFFFFFFFF00E001FC0000000031
:102AD000000000007F000078FFFFFFFFFFFFFFFF07
:102AE000F001FCFF00000000000000000000780082
:102AF000FFFFFF7FFFFFFFFF01FCFFFF000000E281
:102B00000000000000C007007FF84300FF0500FA46
:102B1000CFFAFFFF00003E8000000000C007000069
:102B2000F84300000700F27FFAFFFFFF003C800F30
:102B3000000000001F0000007F0000C000FEFFFF3B
:102B4000FFFFFF073C008FFB0000000000000000BB
:102B5000001FC0A7F17FFC63FFFFF9FBF05FF8FFE8
:102B60000000C03C000000000F80F8007FFC230044
:102B7000FFF1FFF47FFCFFC700C027F0000000005A
:102B800000F800000060001F0500F27FFCFFE3FF7B
:102B90008007F07F00000000FC0000002002BF0062
:102BA00000F27F00FFE3FF0503F07FFC000000E080
:102BB0000000000003FD00FEFE7F0020E3FF070091
:102BC000F07F4CF20000700300000000F00078007D
:102BD0007F000002FFC73FFE7F80E3E3003000F08C
:102BE0000000000000F80200000003F8C73FFE7F6D
:102BF000A0E3E3FFB000E27F00000000F802000065
:102C00000002F8003FFE7F00A3E3FFC700E27FE081
:102C100000000030070000001EC00788FFFF81038E
:102C2000E3FF3FC01E7B00E00000F000000000005A
:102C30004004883FFF810311FF3F40FF7000E0E345
:102C400000BE001E0000000006B83F00810313C054
:102C50003F40FFFF00E0E3FFFE00DE7300000000E6
:102C6000C03F00000FF400193FFFFF81E0E3FFDFEA
:102C7000C03F78000000003EFF000000BC001FC005
:102C8000FFDF810FE37FF2FF0D7C00E000003E409C
:102C900000000000000000FA8F810F9CBFE8FFFFDA
:102CA0007C00E0E3003E400C000000000000FE005D
:102CB000810F9C01F8FFFF8F00E0E3BF3E600E7CB8
:102CC00000000040007E00000F7C0300FFFF8F81AA
:102CD000E0E3BFF8B00B7C000000C03FBE00000086
:102CE000E00100000080810F03FD0000017C00E096
:102CF00000C03FF007000000110000BE80810FE01F
:102D0000DF0600007C60E003C03FF001000000002F
:102D100000003E06810FE0130700008060E003FD25
:102D20003FF0017C000000C006F003007F201E0081
:102D300000008081E0031F0720000C600000C00736
:102D4000F0070000A01E00040080807F031F070022
:102D5000000840E000F80720030000001F0004F016
:102D600080807FE01F0500000840E003F807300086
:102D700000000000C039F0038E7F001FF9FF017EC4
:102D80005CE0031F0706800F000000F82FC03F0023
:102D90003E001FC0FF01FE8FE00303F302800F7CA3
:102DA0000000F807F03F0000001FC02F01FE8F7FDA
:102DB000031FEFFF800F7CE0003807063F00000094
:102DC0001FC06781FE0F3C0210F8FF010F7CE0037B
:102DD000FE00008000000000C04F813F0FFC021F7A
:102DE000F8FF01FE7CE003100000800F000000FEF1
:102DF000FF013E0000001FC0FF01FE0FE00318F8B6
:102E000000800F7C0000FE00017E0000001FC0FF5C
:102E100001FE0F000318F8FF800F7CE000FE0000A9
:102E20003E0000001FC0FF01FE0F000018F8FF0168
:102E30000F7CE003FE0000800100000080F801D656
:102E40000F00001040FF01F248E003000000800185
:102E50000000001CFA07D60100000000FE01F60F7A
:102E6000E003004000F001600000180007DE0100F0
:102E70000018C0F901EE0F000318C0FFF0015CE07C
:102E8000001E0000F0010000C000FC07900F0003CE
:102E90000000FE060140E00318003EF00F000000B5
:102EA00000FE07F0070003C000FE07F040E003004B
:102EB000003CF0010000C007FE07F00F0003C00057
:102EC000FE07F00FE00300003EF0016000C01F00AD
:102ED00007F00F001DC007FE07F07700030000FE9B
:102EE000F00100E0C007C03DF00F0000C007FE0782
:102EF000F057001D0000FE070100E00307C03DF091
:102F00000E0000C005F807007F001F0000F007F06A
:102F100000E00300C003100000008007F807000E67
:102F2000009F0019F007F07FE00301000310800FFD
:102F3000008807E807000E009F0011F807F07F00E7
:102F4000030100F0108007E08007C803000E0000B6
:102F50000008C007D07F00FF0300C006800FE00319
:102F600000F807303C0000F818C003007F00FF03A2
:102F700038C006907FE00303FE073EF00000F80033
:102F8000C007803F00FF0308C005F07FE00303385F
:102F9000073EF07F00F800FC00003C00FF03E80063
:102FA0003A807F00031FD8003EF07FE0F8C0FD07A5
:102FB000002C000001F80000807F00F81FF8003EA0
:102FC000F07FE003C0FF073E2C0000F8F80000008F
:102FD0007F00F303F8003E807FE0031FFF073EF011
:102FE0000000E0C00700F03103ECFFF7073E80BFB0
:102FF000E0031FF8073EF07F0018C0FF00F0B101AA
:10300000F4F3F7063E80BF03031FF8073EF07FE0AE
:103010001BC0FF07F0F10100FFFF070080FF03FC6A
:1030200000F80710F07FE00380FF070EFF01001F8C
:10303000FF2700D6FF03FCFFF807808F7FE003E047
:10304000FF070AF001001FC82700CAED03FCFFFFBD
:1030500007608FFFE00380F8070AF07F001FC8FFBA
:1030600000FEFB01E0FFFF2FE08FFF0303A0F80746
:103070000EF07FE01FF8FF073FFC0100FFFFFFFF9E
:10308000FFFF03E0F8FF3FF0F0FFFF03FFFFFF3F0C
:10309000FF0100FFFFFFFFFFFF03E0FFFF3FF0FF27
:1030A000FFFF03F8FFFF3FF00000FFFFFFFF3F00BF
:1030B0000FE0FFFF3FF0FFFFFF03F8FFFF3FF0FFD0
:1030C00000FFFFFFFF370000E0FFFFFFF0FFFF0FF3
:1030D00003F8FF3F1FF0FFFFFFFFFFFF07000000A7
:1030E000FFFFFFFFFFFF0FE0F8FF3FF0F0FFFF03E0
:1030F000FFFFFF3F000000FFFFFFFF07FF0FE0FFA4
:10310000FFCFFFFFFFFF03F8FFFFDFF10000FFFF2E
:10311000FFFF03000FE0FFFFDFFFFFFFFF03F8FFEC
:10312000FF3FF1FF00FFFFFF7F000000E0FFFFFF18
:10313000FFFFFF0F03F8FFFFFFF1FFFF070080FF16
:1031400000000000FFFFFFFFFFFF0FFFF8FFFFFF82
:10315000F1FFFF0300C0FFFF00000007FFFF3F007B
:10316000FF0FFEFFFFFFFFFFFFFF03F8C0FFFFF1B0
:1031700000000F00807F00000FFE7F00FFFFFFFFB9
:10318000FF03F8FFEEFFF1FF000100000B0000005D
:10319000FF1F0080FFFFFFFFFFFFFFFFFFFFFFFF9D
:1031A000020000E0000000000F008027FFFFFFFF8B
:1031B000FFFFFFFFFFFFFFFF0000E2FF0000000234
:1031C00000002000FFFFFF0FFFFFFFFFFFFFFFFFDB
:1031D00000E0FFFF0000000000300000FFFF0300E0
:1031E000FFFFFFFFEFFFFFFEE0FFFFFF000000001B
:1031F00000000000C0130000FF3F00000000FEFFC1
:1032000000E0FF0F000000000000000003000000CD
:103210003F0000C000FEFFFFE0FF0F0000000000C5
:1032200000000000000000000000C001FEFFFF3FA2
:10323000FF070000000000E00000000000000000A8
:1032400000000000FF7F0000000000000000007F81
:103250000000000000000000000000007F000000EF
:10326000000080FF00007F00000000000000000060
:1032700000000000000000000000FEFF007F0000D2
:10328000000000000000000000000000000000003E
:1032900000FE3F000C0000000000000000000000E5
:1032A0000000000000000000F02F000000000000FF
:1032B000000000000000000000000000000000000E
:1032C0002F000000000000F80000000000000000D7
:1032D0000000000000000000000000000000F007F7
:1032E00000000000000000000000000000000000DE
:1032F0000000000000B00600000000000000000018
:10330000000000000000000000000000A004000019
:1033100000000000000000000000000000000000AD
:10332000000000000000000000000080000000001D
:10333000000000000000000000000000000000008D
:1033400000008000000000000000000000000000FD
:10335000000000000000000000000000000000006D
:10336000000000000000000000000000000000005D
:10337000000000000000000000000000000000004D
:10338000000000000000000000000000000000003D
:10339000000000000000000000000000000000002D
:1033A000000000000000000000000000000000001D
:1033B000000000000000000000000000000000000D
:1033C00000000000000000000000000000000000FD
:1033D00000000000000000000000000000000000ED
:1033E00000000000000000000000000000000000DD
:1033F00000000000000000000000000000000000CD
:1034000000000000000000000000000000000000BC
:1034100000000000000000000000000000000000AC
:10342000000000000000000000000000000000009C
:10343000000000000000000000000000000000008C
:10344000000000000000000078F07F7FFFFF1F3CBD
:10345000F0E0C1830000307878F07FFFFDFB1F3C77
:10346000FFE0C1830000E0FF78F07F7F0103060CDE
:10347000FF60C0800000E0EFF8F07FFF070F1E3C08
:10348000FFE1C1830000E0FF18F0FFFFF9F3070C34
:103490003F60C0800000F0FF18F0FFFFF9F3070C59
:1034A0003060C0800000001818F0FF7F3F7B060CE2
:1034B000FFE0C19B0000E0EF78F0E0C1FFFF1F3CA0
:1034C000F0E0C183000030780103061E3060C08048
:1034D00003060C180000C0038001030F183060C001
:1034E0003F63060C0000808F9BB3E3C3E183878FAB
:1034F000B063CEB8000030F8183060C00103060C8D
:103500007F60C0800000F0FF7CF0E0C177FF7F7F2C
:10351000F0E0C193000030787FFCF0C11F7FDE3DFA
:10352000F0E0C1870000307878F07FFFFDFF1F3C9E
:103530003060C0800000001878F07F7F070F1E3CCD
:10354000BFE3C3830000B0EF78F07FFFFDFF1F3CB7
:103550003167DCF0000070D818F0FF7FFEF9070C2F
:10356000FF8001030000E0FF21D3BF7F3060C080F7
:1035700003060C180000800178F0E0C1070F1E3C24
:10358000FFE0C1830000E0EF78F0E0C1070F1E3CD0
:103590008FBFE3830000808378F0E0C1FFEF9E3CA3
:1035A000F0E0E3EF00003078C7DDF1C170E0C0C1AA
:1035B000F071777C00001070C3CCB0613060E0C166
:1035C00003060C180000800160C0FFFF707070706F
:1035D0003F7070700000F0FFFFFFFFFFFFFFFFFF75
:1035E000FFFFFFFFFFFFFFFF78F07F7FFDF91B3C30
:1035F000FFE0C1830000E0EF18F0FFFFFEF9070CC9
:10360000FF8001030000E0FFD8B061C3FEFD376C0E
:1036100080010306000060C078F07F7FFEFD1F3C44
:10362000FF8001030000E0FF03061C3860C080013A
:103630000F0C18300000800760C0BF7F183030606A
:1036400003060C0C0000800118F0FF7FFFFF070C41
:10365000FFE0C1830000E0EF60C07FFFFCF819309D
:10366000FF8001030000E0FF60C07FFFFFFF1B3011
:103670003F60C0800000F0FF78F07F7F070F1E3CA6
:10368000FFE0C1830000E0EFF1830700E79F7FFECA
:10369000001EFCF80000000007000000C007380012
:1036A0000FC0073EE3E3C7878F71FC8FFF8F18FFC2
:1036B000F0FF0FC407F8F307FC03FEF97FFE03FFDA
:1036C000E03FFFC13FF08FFFF91FF0E3FCFF07F879
:1036D00000FCFF01FF00FEFFFEEF80FF70FE73E0C5
:1036E00000000000000000000000000000000000DA
:1036F00000000000000000000000000000000000CA
:1037000000000000000000000000000000000000B9
:1037100000000000000000000000000000000000A9
:103720000000000000000000000000000000000099
:103730000000000000000000000000000000000089
:103740000000000000000000000000000000000079
:103750000000000000000000000000000000000069
:103760000000000000000000000000000000000059
:103770000000000000000000000000000000000049
:103780000000000000000000000000000000000039
:103790000000000000000000000000000000000029
:1037A0000000000000000000000000000000000019
:1037B0000000000000000000000000000000000009
:1037C00000000000000000000000000000000000F9
:1037D00000000000000000000000000000000000E9
:1037E00000000000000000000000000000000000D9
:1037F00000000000000000000000000000000000C9
:1038000000C00100000000000000000000000000F7
:103810000000000000000000C003000000000000E5
:103820000000000000000000000000000000000098
:1038300001000000000000C00000000000000000C7
:103840000000000000000000000000000000F01375
:1038500000000000000000000000001C000000004C
:103860000000000000F00F00000000000000000059
:10387000000018000000000000000000E01F000031
:103880000000000000000000000000000000000038
:10389000000000003F000000000000EC00020000FB
:1038A000660F0000000000000000000000000000A3
:1038B0000000FF7F020006000F000000000080FFF4
:1038C000000000000000000000FE7F000006000075
:1038D000000000020000FF0F0000000000000000D8
:1038E000FEFF0000060000000000021E00FF0700AF
:1038F0000000000000000000FF010000000020FEAA
:1039000000C23F06FF87000000000010000000001A
:103910000300000000E0E1FF00000000FF010000E4
:10392000000010FF0000000000000000FDE1FF1F8C
:10393000C00400007F0000020010FFFF0000000034
:103940000000000003000000000000FD0000204017
:1039500008FFFF7F000000000000000000C0000022
:1039600000FCFC0300043F02FDFFBF3F0000008F8E
:103970000000000080000000FC3F0200463E020004
:10398000FFFF7F00000009F30000000000000000BE
:103990007F0000402E0200FCFF3F00040001F0FF0A
:1039A00000000000000000000000FF00F47FFC3F6A
:1039B0007F3E800E01F8FFFF000000400000000085
:1039C00000F30000FFFF7F00FFFFFFFFFCFFFFFF92
:1039D0000000F00100000000F8000000FF7F000080
:1039E000FFFFFFFFFFFFFFFF00E001FC0000000002
:1039F000000000007F000078FFFFFFFFFFFFFFFFD8
:103A0000F001FCFF00000000000000000000780052
:103A1000FFFFFF7FFFFFFFFF01FCFFFF000000E251
:103A20000000000000C007007FF84300FF0500FA17
:103A3000CFFAFFFF00003E8000000000C00700003A
:103A4000F84300000700F27FFAFFFFFF003C800F01
:103A5000000000001F0000007F0000C000FEFFFF0C
:103A6000FFFFFF073C008FFB00000000000000008C
:103A7000001FC0A7F17FFC63FFFFF9FBF05FF8FFB9
:103A80000000C03C000000000F80F8007FFC230015
:103A9000FFF1FFF47FFCFFC700C027F0000000002B
:103AA00000F800000060001F0500F27FFCFFE3FF4C
:103AB0008007F07F00000000FC0000002002BF0033
:103AC00000F27F00FFE3FF0503F07FFC000000E051
:103AD0000000000003FD00FEFE7F0020E3FF070062
:103AE000F07F4CF20000700300000000F00078004E
:103AF0007F000002FFC73FFE7F80E3E3003000F05D
:103B00000000000000F80200000003F8C73FFE7F3D
:103B1000A0E3E3FFB000E27F00000000F802000035
:103B20000002F8003FFE7F00A3E3FFC700E27FE052
:103B300000000030070000001EC00788FFFF81035F
:103B4000E3FF3FC01E7B00E00000F000000000002B
:103B50004004883FFF810311FF3F40FF7000E0E316
:103B600000BE001E0000000006B83F00810313C025
:103B70003F40FFFF00E0E3FFFE00DE7300000000B7
:103B8000C03F00000FF400193FFFFF81E0E3FFDFBB
:103B9000C03F78000000003EFF000000BC001FC0D6
:103BA000FFDF810FE37FF2FF0D7C00E000003E406D
:103BB00000000000000000FA8F810F9CBFE8FFFFAB
:103BC0007C00E0E3003E400C000000000000FE002E
:103BD000810F9C01F8FFFF8F00E0E3BF3E600E7C89
:103BE00000000040007E00000F7C0300FFFF8F817B
:103BF000E0E3BFF8B00B7C000000C03FBE00000057
:103C0000E00100000080810F03FD0000017C00E066
:103C100000C03FF007000000110000BE80810FE0EF
:103C2000DF0600007C60E003C03FF0010000000000
:103C300000003E06810FE0130700008060E003FDF6
:103C40003FF0017C000000C006F003007F201E0052
:103C500000008081E0031F0720000C600000C00707
:103C6000F0070000A01E00040080807F031F0700F3
:103C7000000840E000F80720030000001F0004F0E7
:103C800080807FE01F0500000840E003F807300057
:103C900000000000C039F0038E7F001FF9FF017E95
:103CA0005CE0031F0706800F000000F82FC03F00F4
:103CB0003E001FC0FF01FE8FE00303F302800F7C74
:103CC0000000F807F03F0000001FC02F01FE8F7FAB
:103CD000031FEFFF800F7CE0003807063F00000065
:103CE0001FC06781FE0F3C0210F8FF010F7CE0034C
:103CF000FE00008000000000C04F813F0FFC021F4B
:103D0000F8FF01FE7CE003100000800F000000FEC1
:103D1000FF013E0000001FC0FF01FE0FE00318F886
:103D200000800F7C0000FE00017E0000001FC0FF2D
:103D300001FE0F000318F8FF800F7CE000FE00007A
:103D40003E0000001FC0FF01FE0F000018F8FF0139
:103D50000F7CE003FE0000800100000080F801D627
:103D60000F00001040FF01F248E003000000800156
:103D70000000001CFA07D60100000000FE01F60F4B
:103D8000E003004000F001600000180007DE0100C1
:103D90000018C0F901EE0F000318C0FFF0015CE04D
:103DA000001E0000F0010000C000FC07900F00039F
:103DB0000000FE060140E00318003EF00F00000086
:103DC00000FE07F0070003C000FE07F040E003001C
:103DD000003CF0010000C007FE07F00F0003C00028
:103DE000FE07F00FE00300003EF0016000C01F007E
:103DF00007F00F001DC007FE07F07700030000FE6C
:103E0000F00100E0C007C03DF00F0000C007FE0752
:103E1000F057001D0000FE070100E00307C03DF061
:103E20000E0000C005F807007F001F0000F007F03B
:103E300000E00300C003100000008007F807000E38
:103E4000009F0019F007F07FE00301000310800FCE
:103E5000008807E807000E009F0011F807F07F00B8
:103E6000030100F0108007E08007C803000E000087
:103E70000008C007D07F00FF0300C006800FE003EA
:103E800000F807303C0000F818C003007F00FF0373
:103E900038C006907FE00303FE073EF00000F80004
:103EA000C007803F00FF0308C005F07FE003033830
:103EB000073EF07F00F800FC00003C00FF03E80034
:103EC0003A807F00031FD8003EF07FE0F8C0FD0776
:103ED000002C000001F80000807F00F81FF8003E71
:103EE000F07FE003C0FF073E2C0000F8F800000060
:103EF0007F00F303F8003E807FE0031FFF073EF0E2
:103F00000000E0C00700F03103ECFFF7073E80BF80
:103F1000E0031FF8073EF07F0018C0FF00F0B1017A
:103F2000F4F3F7063E80BF03031FF8073EF07FE07F
:103F30001BC0FF07F0F10100FFFF070080FF03FC3B
:103F400000F80710F07FE00380FF070EFF01001F5D
:103F5000FF2700D6FF03FCFFF807808F7FE003E018
:103F6000FF070AF001001FC82700CAED03FCFFFF8E
:103F700007608FFFE00380F8070AF07F001FC8FF8B
:103F800000FEFB01E0FFFF2FE08FFF0303A0F80717
:103F90000EF07FE01FF8FF073FFC0100FFFFFFFF6F
:103FA000FFFF03E0F8FF3FF0F0FFFF03FFFFFF3FDD
:103FB000FF0100FFFFFFFFFFFF03E0FFFF3FF0FFF8
:103FC000FFFF03F8FFFF3FF00000FFFFFFFF3F0090
:103FD0000FE0FFFF3FF0FFFFFF03F8FFFF3FF0FFA1
:103FE00000FFFFFFFF370000E0FFFFFFF0FFFF0FC4
:103FF00003F8FF3F1FF0FFFFFFFFFFFF0700000078
:10400000FFFFFFFFFFFF0FE0F8FF3FF0F0FFFF03B0
:10401000FFFFFF3F000000FFFFFFFF07FF0FE0FF74
:10402000FFCFFFFFFFFF03F8FFFFDFF10000FFFFFF
:10403000FFFF03000FE0FFFFDFFFFFFFFF03F8FFBD
:10404000FF3FF1FF00FFFFFF7F000000E0FFFFFFE9
:10405000FFFFFF0F03F8FFFFFFF1FFFF070080FFE7
:1040600000000000FFFFFFFFFFFF0FFFF8FFFFFF53
:10407000F1FFFF0300C0FFFF00000007FFFF3F004C
:10408000FF0FFEFFFFFFFFFFFFFF03F8C0FFFFF181
:1040900000000F00807F00000FFE7F00FFFFFFFF8A
:1040A000FF03F8FFEEFFF1FF000100000B0000002E
:1040B000FF1F0080FFFFFFFFFFFFFFFFFFFFFFFF6E
:1040C000020000E0000000000F008027FFFFFFFF5C
:1040D000FFFFFFFFFFFFFFFF0000E2FF0000000205
:1040E00000002000FFFFFF0FFFFFFFFFFFFFFFFFAC
:1040F00000E0FFFF0000000000300000FFFF0300B1
:10410000FFFFFFFFEFFFFFFEE0FFFFFF00000000EB
:1041100000000000C0130000FF3F00000000FEFF91
:1041200000E0FF0F0000000000000000030000009E
:104130003F0000C000FEFFFFE0FF0F000000000096
:1041400000000000000000000000C001FEFFFF3F73
:10415000FF070000000000E0000000000000000079
:1041600000000000FF7F0000000000000000007F52
:104170000000000000000000000000007F000000C0
:10418000000080FF00007F00000000000000000031
:1041900000000000000000000000FEFF007F0000A3
:1041A000000000000000000000000000000000000F
:1041B00000FE3F000C0000000000000000000000B6
:1041C0000000000000000000F02F000000000000D0
:1041D00000000000000000000000000000000000DF
:1041E0002F000000000000F80000000000000000A8
:1041F0000000000000000000000000000000F007C8
:1042000000000000000000000000000000000000AE
:104210000000000000B006000000000000000000E8
:10422000000000000000000000000000A0040000EA
:10423000000000000000000000000000000000007E
:1042400000000000000000000000008000000000EE
:10425000000000000000000000000000000000005E
:1042600000008000000000000000000000000000CE
:10427000000000000000000000000000000000003E
:10428000000000000000000000000000000000002E
:10429000000000000000000000000000000000001E
:1042A000000000000000000000000000000000000E
:1042B00000000000000000000000000000000000FE
:1042C00000000000000000000000000000000000EE
:1042D00000000000000000000000000000000000DE
:1042E00000000000000000000000000000000000CE
:1042F00000000000000000000000000000000000BE
:1043000000000000000000000000000000000000AD
:10431000000000000000000000000000000000009D
:10432000000000000000000000000000000000008D
:10433000000000000000000000000000000000007D
:10434000000000000000000000000000000000006D
:10435000000000000000000000000000000000005D
:10436000000000000000000078F07F7FFFFF1F3C8E
:10437000F0E0C1830000307878F07FFFFDFB1F3C48
:10438000FFE0C1830000E0FF78F07F7F0103060CAF
:10439000FF60C0800000E0EFF8F07FFF070F1E3CD9
:1043A000FFE1C1830000E0FF18F0FFFFF9F3070C05
:1043B0003F60C0800000F0FF18F0FFFFF9F3070C2A
:1043C0003060C0800000001818F0FF7F3F7B060CB3
:1043D000FFE0C19B0000E0EF78F0E0C1FFFF1F3C71
:1043E000F0E0C183000030780103061E3060C08019
:1043F00003060C180000C0038001030F183060C0D2
:104400003F63060C0000808F9BB3E3C3E183878F7B
:10441000B063CEB8000030F8183060C00103060C5D
:104420007F60C0800000F0FF7CF0E0C177FF7F7FFD
:10443000F0E0C193000030787FFCF0C11F7FDE3DCB
:10444000F0E0C1870000307878F07FFFFDFF1F3C6F
:104450003060C0800000001878F07F7F070F1E3C9E
:10446000BFE3C3830000B0EF78F07FFFFDFF1F3C88
:104470003167DCF0000070D818F0FF7FFEF9070C00
:10448000FF8001030000E0FF21D3BF7F3060C080C8
:1044900003060C180000800178F0E0C1070F1E3CF5
:1044A000FFE0C1830000E0EF78F0E0C1070F1E3CA1
:1044B0008FBFE3830000808378F0E0C1FFEF9E3C74
:1044C000F0E0E3EF00003078C7DDF1C170E0C0C17B
:1044D000F071777C00001070C3CCB0613060E0C137
:1044E00003060C180000800160C0FFFF7070707040
:1044F0003F7070700000F0FFFFFFFFFFFFFFFFFF46
:10450000FFFFFFFFFFFFFFFF78F07F7FFDF91B3C00
:10451000FFE0C1830000E0EF18F0FFFFFEF9070C99
:10452000FF8001030000E0FFD8B061C3FEFD376CDF
:1045300080010306000060C078F07F7FFEFD1F3C15
:10454000FF8001030000E0FF03061C3860C080010B
:104550000F0C18300000800760C0BF7F183030603B
:1045600003060C0C0000800118F0FF7FFFFF070C12
:10457000FFE0C1830000E0EF60C07FFFFCF819306E
:10458000FF8001030000E0FF60C07FFFFFFF1B30E2
:104590003F60C0800000F0FF78F07F7F070F1E3C77
:1045A000FFE0C1830000E0EFF1830700E79F7FFE9B
:1045B000001EFCF80000000007000000C0073800E3
:1045C0000FC0073EE3E3C7878F71FC8FFF8F18FF93
:1045D000F0FF0FC407F8F307FC03FEF97FFE03FFAB
:1045E000E03FFFC13FF08FFFF91FF0E3FCFF07F84A
:1045F00000FCFF01FF00FEFFFEEF80FF70FE73E096
:104600000000000000000000010C1E000748CCF074
:10461000002019C61C9E241071C08C4004000202A8
:10462000131F08084C7C302032017880C8C4010078
:1046300020130700804C00000032F10100C8C407BD
:104640000020130000804C1C000032711F00C804C1
:104650007C0020130600C0CC31008031CC0000E388
:10466000330300CCCC0C0030E61900C03030000021
:104670008073000000780000000000000F00000EB2
:10468000FC0738E007EF011EC0E3F1800FE0783C43
:10469000C703781ECF7B00BC9FF71F1CF8CFF9C360
:1046A00000DEF3381EC0E3391E0FF0788FC7033CDD
:1046B00080F7E0011CE03F700000F0070000007090
:1046C0003C407800210050668910C72980408883CB
:1046D000E2412004680130D000B4380E00005A1CBA
:1046E000160F002D400B008000A0C5010100D0E294
:1046F000B67900688018010000409E00240020491F
:10470000C81300900008040000009C03000000781B
:104710000000000000000000000000000000000099
:104720000000000000000000000000000000000089
:104730000000000000000000000000000000000079
:104740000000000000000000000000000000000069
:104750000000000000000000000000000000000059
:104760000000000000000000000000000000000049
:104770000000000000000000000000000000000039
:104780000000000000000000000000000000000029
:104790000000000000000000000000000000000019
:1047A0000000000000000000000000000000000009
:1047B00000000000000000000000000000000000F9
:1047C00000000000000000000000000000000000E9
:1047D00000000000000000000000000000000000D9
:1047E00000000000000000000000000000000000C9
:1047F00000000000000000000000000000000000B9
:1048000000000000000000000000000000000000A8
:104810000000000000000000000000000000000098
:10482000000000000000000000C0010000000000C7
:104830000000000000000000000000000000000078
:10484000C0030000000000000000000000000000A5
:10485000000000000000000001000000000000C097
:104860000000000000000000000000000000000048
:10487000000000000000F013000000000000000035
:104880000000001C000000000000000000F00F000D
:104890000000000000000000000018000000000000
:1048A00000000000E01F0000000000000000000009
:1048B0000000000000000000000000003F000000B9
:1048C000000000EC00020000660F00000000000085
:1048D00000000000000000000000FF7F0200060052
:1048E0000F000000000080FF00000000000000003A
:1048F00000FE7F0000060000000000020000FF0F25
:104900000000000000000000FEFF000006000000A4
:104910000000021E00FF0700000000000000000071
:10492000FF010000000020FE00C23F06FF870000DC
:1049300000000010000000000300000000E0E1FFA4
:1049400000000000FF010000000010FF0000000058
:1049500000000000FDE1FF1FC00400007F00000216
:104960000010FFFF00000000000000000300000036
:10497000000000FD0000204008FFFF7F0000000055
:104980000000000000C0000000FCFC0300043F0227
:10499000FDFFBF3F0000008F00000000800000000E
:1049A000FC3F0200463E0200FFFF7F00000009F3CB
:1049B00000000000000000007F0000402E0200FC0C
:1049C000FF3F00040001F0FF0000000000000000B5
:1049D0000000FF00F47FFC3F7F3E800E01F8FFFFE8
:1049E000000000400000000000F30000FFFF7F0017
:1049F000FFFFFFFFFCFFFFFF0000F00100000000D1
:104A0000F8000000FF7F0000FFFFFFFFFFFFFFFF38
:104A100000E001FC00000000000000007F000078C2
:104A2000FFFFFFFFFFFFFFFFF001FCFF00000000A2
:104A30000000000000007800FFFFFF7FFFFFFFFF86
:104A400001FCFFFF000000E20000000000C00700C2
:104A50007FF84300FF0500FACFFAFFFF00003E8019
:104A600000000000C0070000F84300000700F27FCC
:104A7000FAFFFFFF003C800F000000001F00000055
:104A80007F0000C000FEFFFFFFFFFF073C008FFB21
:104A90000000000000000000001FC0A7F17FFC63C1
:104AA000FFFFF9FBF05FF8FF0000C03C00000000D2
:104AB0000F80F8007FFC2300FFF1FFF47FFCFFC7AD
:104AC00000C027F00000000000F800000060001F98
:104AD0000500F27FFCFFE3FF8007F07F000000008D
:104AE000FC0000002002BF0000F27F00FFE3FF0592
:104AF00003F07FFC000000E00000000003FD00FE6A
:104B0000FE7F0020E3FF0700F07F4CF200007003FF
:104B100000000000F00078007F000002FFC73FFEA9
:104B20007F80E3E3003000F00000000000F80200A6
:104B3000000003F8C73FFE7FA0E3E3FFB000E27F81
:104B400000000000F80200000002F8003FFE7F00B5
:104B5000A3E3FFC700E27FE0000000300700000091
:104B60001EC00788FFFF8103E3FF3FC01E7B00E0FC
:104B70000000F000000000004004883FFF810311A6
:104B8000FF3F40FF7000E0E300BE001E0000000099
:104B900006B83F00810313C03F40FFFF00E0E3FF82
:104BA000FE00DE7300000000C03F00000FF400199B
:104BB0003FFFFF81E0E3FFDFC03F78000000003EE1
:104BC000FF000000BC001FC0FFDF810FE37FF2FF8A
:104BD0000D7C00E000003E4000000000000000FAF4
:104BE0008F810F9CBFE8FFFF7C00E0E3003E400C9C
:104BF000000000000000FE00810F9C01F8FFFF8F05
:104C000000E0E3BF3E600E7C00000040007E00003C
:104C10000F7C0300FFFF8F81E0E3BFF8B00B7C0047
:104C20000000C03FBE000000E00100000080810FD6
:104C300003FD0000017C00E000C03FF00700000021
:104C4000110000BE80810FE0DF0600007C60E00301
:104C5000C03FF0010000000000003E06810FE0139D
:104C60000700008060E003FD3FF0017C000000C011
:104C700006F003007F201E0000008081E0031F0774
:104C800020000C600000C007F0070000A01E000418
:104C90000080807F031F0700000840E000F8072025
:104CA000030000001F0004F080807FE01F0500006B
:104CB0000840E003F807300000000000C039F003AE
:104CC0008E7F001FF9FF017E5CE0031F0706800F47
:104CD000000000F82FC03F003E001FC0FF01FE8F04
:104CE000E00303F302800F7C0000F807F03F0000B0
:104CF000001FC02F01FE8F7F031FEFFF800F7CE09E
:104D0000003807063F0000001FC06781FE0F3C020D
:104D100010F8FF010F7CE003FE000080000000009F
:104D2000C04F813F0FFC021FF8FF01FE7CE0031023
:104D30000000800F000000FEFF013E0000001FC0C9
:104D4000FF01FE0FE00318F800800F7C0000FE005A
:104D5000017E0000001FC0FF01FE0F000318F8FFD6
:104D6000800F7CE000FE00003E0000001FC0FF013D
:104D7000FE0F000018F8FF010F7CE003FE0000802A
:104D80000100000080F801D60F00001040FF01F282
:104D900048E00300000080010000001CFA07D60173
:104DA00000000000FE01F60FE003004000F001608B
:104DB0000000180007DE01000018C0F901EE0F0026
:104DC0000318C0FFF0015CE0001E0000F0010000CD
:104DD000C000FC07900F00030000FE060140E00346
:104DE00018003EF00F00000000FE07F0070003C0AF
:104DF00000FE07F040E00300003CF0010000C007A7
:104E0000FE07F00F0003C000FE07F00FE0030000F4
:104E10003EF0016000C01F0007F00F001DC007FE3C
:104E200007F07700030000FEF00100E0C007C03D7E
:104E3000F00F0000C007FE07F057001D0000FE073E
:104E40000100E00307C03DF00E0000C005F80700B8
:104E50007F001F0000F007F000E00300C003100017
:104E600000008007F807000E009F0019F007F07F90
:104E7000E00301000310800F008807E807000E0020
:104E80009F0011F807F07F00030100F0108007E099
:104E90008007C803000E00000008C007D07F00FF95
:104EA0000300C006800FE00300F807303C0000F864
:104EB00018C003007F00FF0338C006907FE00303A3
:104EC000FE073EF00000F800C007803F00FF030827
:104ED000C005F07FE0030338073EF07F00F800FCD8
:104EE00000003C00FF03E8003A807F00031FD80069
:104EF0003EF07FE0F8C0FD07002C000001F8000044
:104F0000807F00F81FF8003EF07FE003C0FF073EFF
:104F10002C0000F8F80000007F00F303F8003E804A
:104F20007FE0031FFF073EF00000E0C00700F03104
:104F300003ECFFF7073E80BFE0031FF8073EF07F5A
:104F40000018C0FF00F0B101F4F3F7063E80BF0384
:104F5000031FF8073EF07FE01BC0FF07F0F10100E0
:104F6000FFFF070080FF03FC00F80710F07FE0035D
:104F700080FF070EFF01001FFF2700D6FF03FCFF85
:104F8000F807808F7FE003E0FF070AF001001FC8E9
:104F90002700CAED03FCFFFF07608FFFE00380F8E6
:104FA000070AF07F001FC8FF00FEFB01E0FFFF2F94
:104FB000E08FFF0303A0F8070EF07FE01FF8FF0764
:104FC0003FFC0100FFFFFFFFFFFF03E0F8FF3FF0A2
:104FD000F0FFFF03FFFFFF3FFF0100FFFFFFFFFFA9
:104FE000FF03E0FFFF3FF0FFFFFF03F8FFFF3FF08D
:104FF0000000FFFFFFFF3F000FE0FFFF3FF0FFFF5C
:10500000FF03F8FFFF3FF0FF00FFFFFFFF37000047
:10501000E0FFFFFFF0FFFF0F03F8FF3F1FF0FFFF70
:10502000FFFFFFFF07000000FFFFFFFFFFFF0FE094
:10503000F8FF3FF0F0FFFF03FFFFFF3F000000FF1E
:10504000FFFFFF07FF0FE0FFFFCFFFFFFFFF03F8AA
:10505000FFFFDFF10000FFFFFFFF03000FE0FFFF96
:10506000DFFFFFFFFF03F8FFFF3FF1FF00FFFFFF40
:105070007F000000E0FFFFFFFFFFFF0F03F8FFFFCF
:10508000FFF1FFFF070080FF00000000FFFFFFFFB0
:10509000FFFF0FFFF8FFFFFFF1FFFF0300C0FFFF5F
:1050A00000000007FFFF3F00FF0FFEFFFFFFFFFFB5
:1050B000FFFF03F8C0FFFFF100000F00807F00003A
:1050C0000FFE7F00FFFFFFFFFF03F8FFEEFFF1FF82
:1050D000000100000B000000FF1F0080FFFFFFFF2A
:1050E000FFFFFFFFFFFFFFFF020000E000000000E6
:1050F0000F008027FFFFFFFFFFFFFFFFFFFFFFFF06
:105100000000E2FF0000000200002000FFFFFF0F90
:10511000FFFFFFFFFFFFFFFF00E0FFFF00000000B9
:1051200000300000FFFF0300FFFFFFFFEFFFFFFE67
:10513000E0FFFFFF0000000000000000C0130000BF
:10514000FF3F00000000FEFF00E0FF0F0000000036
:1051500000000000030000003F0000C000FEFFFF51
:10516000E0FF0F0000000000000000000000000051
:105170000000C001FEFFFF3FFF070000000000E04D
:10518000000000000000000000000000FF7F0000A1
:10519000000000000000007F000000000000000090
:1051A000000000007F000000000080FF00007F0082
:1051B00000000000000000000000000000000000EF
:1051C0000000FEFF007F0000000000000000000063
:1051D000000000000000000000FE3F000C00000086
:1051E00000000000000000000000000000000000BF
:1051F000F02F000000000000000000000000000090
:1052000000000000000000002F000000000000F877
:10521000000000000000000000000000000000008E
:10522000000000000000F007000000000000000087
:1052300000000000000000000000000000B00600B8
:10524000000000000000000000000000000000005E
:1052500000000000A00400000000000000000000AA
:10526000000000000000000000000000000000003E
:1052700000000080000000000000000000000000AE
:10528000000000000000000000008000000000009E
:10529000000000000000000000000000000000000E
:1052A00000000000000000000000000000000000FE
:1052B00000000000000000000000000000000000EE
:1052C00000000000000000000000000000000000DE
:1052D00000000000000000000000000000000000CE
:1052E00000000000000000000000000000000000BE
:1052F00000000000000000000000000000000000AE
:10530000000000000000000000000000000000009D
:10531000000000000000000000000000000000008D
:10532000000000000000000000000000000000007D
:10533000000000000000000000000000000000006D
:10534000000000000000000000000000000000005D
:10535000000000000000000000000000000000004D
:10536000000000000000000000000000000000003D
:10537000000000000000000000000000000000002D
:10538000000000000000000000000000000000001D
:04000005080000ED02
:00000001FF
