:020000040800F2
:1000000000060020ED000008F5000008F7000008D9
:10001000F9000008FB000008FD00000800000000D7
:10002000000000000000000000000000FF000008C9
:10003000010100080000000003010008050100089C
:100040000701000807010008070100080701000870
:100050000701000807010008070100081F01000848
:100060001F0100081F010008A50300081F01000868
:100070001F0100081F0100081F0100081F010008E0
:100080001F0100081F0100081F0100081F010008D0
:100090001F0100081F0100081F0100081F010008C0
:1000A0001F0100081F0100081F0100081F010008B0
:1000B0001F0100081F010008530100089F010008EC
:1000C0009F0100089F0100089F0100089F01000890
:1000D0009F0100089F0100089F0100089F01000880
:1000E0009F010008B9010008B9010008364880479F
:1000F00036480047FEE7FEE7FEE7FEE7FEE7FEE7DD
:10010000FEE7FEE7FEE70FB53148016841F0010167
:1001100001603048016881F0020101600FBD2DE9E6
:10012000FF5F2D48016921F0010101612B48016841
:10013000A1F101010160002909D12948016841F0BC
:10014000010101602448016821F001010160BDE85E
:10015000FF9F2DE9FF5F2348016921F00101016143
:100160004FF00050016801F101011F4A914208BFA0
:10017000002101600D461D4B1C68AC4204D118489B
:10018000016841F00101016019480168002904D0AB
:100190001848016801F101010160BDE8FF9F2DE9E8
:1001A00001500B484FF4005101600D4B1C6824F0C6
:1001B00001041C60BDE80190FEE700000E480F49F5
:1001C0000F4A104B704700003D030008050D000862
:1001D000140401400C0801400004004020000020ED
:1001E0000C0C01400008004080510100400000203C
:1001F00060000020320000200000002000060020E7
:100200000002002000020020704770477047000085
:1002100080B500F001F880BD84B00020039002900A
:1002200041F20001C4F20201086840F48030086025
:10023000FFE741F20000C4F20200006800F4003061
:100240000290039801300390FFE70299002001908B
:1002500039B9FFE70398B0F5A06018BF01200190FD
:10026000FFE70198C0070028E3D1FFE741F2000053
:10027000C4F2020000688003002803D5FFE70120D4
:10028000029002E000200290FFE70298012851D17D
:10029000FFE742F20001C4F20201086840F01000DA
:1002A0000860086820F007000860086840F0020055
:1002B000086041F20401C4F202010091086808607C
:1002C00008680860086840F480600860086820F4E6
:1002D0007C100860086840F4E810086041F20001F2
:1002E000C4F20201086840F080700860FFE741F244
:1002F0000000C4F2020000688001002801D4FFE77A
:10030000F5E741F20401C4F20201086820F003009D
:100310000860086840F002000860FFE741F204004E
:10032000C4F20200006800F00C00082801D0FFE7CA
:10033000F4E700E0FFE704B07047000080B541F249
:100340000002C4F20202106840F00100106041F2A5
:100350000401C4F2020108680023CFF6FF0318402D
:10036000086010684FF6FF73CFF6F6631840106010
:10037000106820F480201060086820F4FE000860F7
:1003800041F20801C4F202014FF41F000860FFF7B8
:100390003FFF4EF60851CEF200014FF000600860BA
:1003A00080BD000003B50B48016841F010010160F9
:1003B0000948016881F001010160084801680029CD
:1003C00007D00748016801F10101042908BF002195
:1003D000016003BD140401400C0C014036000020F4
:1003E0002400002007B59249086820F48070086056
:1003F000086820F0FF0002F0FF0240EA02000860F7
:100400008B49086840F48070086007BD03B58849CF
:10041000086820F400700860FFF7E4FF03BD03B52F
:100420008349086840F400700860FFF7DBFF03BDF4
:1004300007B57F49086840F40060086000F0CCF818
:100440007B49086820F40060086000F0C5F878492E
:10045000086840F40060086000F0BEF8744908685D
:1004600040F4806008607249086840F48070086059
:100470006F49086820F4806008604FF0C502FFF7FC
:10048000C5FF4FF07F02FFF7CAFF4FF00002FFF7F2
:10049000C6FF4FF03602FFF7B9FF4FF02802FFF713
:1004A000BEFF4FF03A02FFF7B1FF4FF05502FFF7E2
:1004B000B6FF4FF01102FFF7A9FF00F08DF84FF0E3
:1004C0002902FFF7A3FF00F087F84FF02002FFF7A3
:1004D0009DFF4FF02C02FFF799FF07BD2DE9FF5F4D
:1004E000A1F10101A4F101044FF02A02FFF78EFFF0
:1004F0004FEA1022FFF793FF0246FFF790FF4FEA03
:100500001122FFF78CFF0A46FFF789FF4FF02B02FD
:10051000FFF77CFF4FEA1322FFF781FF1A46FFF730
:100520007EFF4FEA1422FFF77AFF2246FFF777FF9C
:100530004FF02C02FFF76AFFBDE8FF9F2DE91F4433
:100540003B4B1C6824F400441C600B4600F1010185
:1005500003F10104FFF7C2FF4FF02C02FFF756FF33
:100560004FEA1A22FFF75BFF5246FFF758FFBDE83C
:100570001F842DE9FF5F0E4619463346FFF7AEFF95
:10058000091AE41A04FB01F54FEA1A22FFF747FFA4
:100590005246FFF744FF6D1E002DF5DABDE8FF9FC0
:1005A0002DE9FF5F2349086840F0040008602248F5
:1005B00001684FF011310160204801684FF011319E
:1005C00001601B4908684FF0000040F4FE400860DD
:1005D000FFF72EFFBDE8FF9F2DE90041DFF86080A7
:1005E000B8F10108B8F1000FFADABDE800812DE991
:1005F0000041DFF84C80B8F10208B8F1000FFADAD8
:10060000BDE800812DE90041DFF83480B8F57A7843
:10061000B8F1000FFADABDE800812DE90041DFF8FA
:100620002080B8F16408B8F1000FFADABDE8008163
:100630000C08014018100240000801400408014065
:10064000046018002DE9FF5F1F6804460D464FF057
:10065000200802FB06F981444C4506D304461544A4
:1006600002FB0BF989444D451ED24FEAD779B9F107
:10067000010F2DE9FF0720462946034613440C4687
:1006800014440CBF4FF0000A4FF6FF7AFFF771FFDA
:10069000BDE8FF0714444FEA4707B8F10108D8D175
:1006A00003F104031F68D2E7BDE8FF9F2DE9FF5F58
:1006B0008F4B00F0D2F88F4B00F0CFF88C4B00F04E
:1006C000CCF88D4B00F0C9F88C4B00F0C6F88C4B81
:1006D00000F0C3F88A4B00F0C0F8894B00F0BDF879
:1006E000874B00F0BAF8BDE8FF9F2DE9FF5F854B0F
:1006F00000F0B3F8844B00F0B0F8804B00F0ADF898
:10070000824B00F0AAF87C4B00F0A7F87C4B00F07D
:10071000A4F87B4B00F0A1F8794B00F09EF8784BE1
:1007200000F09BF8BDE8FF9F2DE9FF5F784B00F0DC
:1007300094F8704B00F091F8764B00F08EF8744B03
:1007400000F08BF8744B00F088F86D4B00F085F8E2
:100750006B4B00F082F86A4B00F07FF8684B00F0BA
:100760007CF8BDE8FF9F2DE9FF5F6C4B00F075F84A
:10077000644B00F072F8674B00F06FF8684B00F0C4
:100780006CF8684B00F069F8594B00F066F85D4B67
:1007900000F063F85E4B00F060F8634B00F05DF82A
:1007A000BDE8FF9F2DE9FF5F5C4B00F056F85F4B03
:1007B00000F053F85E4B00F050F8BDE8FF9F2DE9C4
:1007C000FF5F4E4B00F049F8524B00F046F8584B93
:1007D00000F043F8BDE8FF9F2DE9FF5F494B00F0B3
:1007E0003CF8524B00F039F8484B00F036F8BDE8C1
:1007F000FF9F2DE9FF5F4B4B00F02FF8434B00F0BC
:100800002CF84C4B00F029F8BDE8FF9F2DE9FF5F65
:100810003C4B00F022F8444B00F01FF8434B00F033
:100820001CF8BDE8FF9F2DE9FF5F434B00F015F872
:10083000314B00F012F8344B00F00FF8BDE8FF9F89
:100840002DE9FF5F354B00F008F8294B00F005F863
:100850002C4B00F002F8BDE8FF9F00B54FF00906F1
:100860004FF00C0BFFF7EEFE4FF0090402FB04F90A
:10087000814409EB050000BD2DE9FF5F4FF0040541
:100880004FF009064FF00C0B224B002C08BFFFF76E
:10089000D9FE2A4B012C08BFFFF7D4FE284B022CAF
:1008A00008BFFFF7CFFE274B032C08BFFFF7CAFE98
:1008B000254B042C08BFFFF7C5FE244B052C08BFB1
:1008C000FFF7C0FE224B062C08BFFFF7BBFE214BF3
:1008D000072C08BFFFF7B6FE1F4B082C08BFFFF719
:1008E000B1FE1E4B092C08BFFFF7ACFEBDE8FF9F11
:1008F0009C2300084C2400089C2400085C24000869
:100900002C250008BC2400081C240008DC23000857
:10091000BC230008CC2500083C240008AC240008B7
:100920007C240008EC2400080C240008CC240008D7
:100930006C240008CC230008EC2300087C25000868
:10094000BC250008AC2500085C2500084C250008E3
:100950009C2500088C2500083C2500086C25000813
:100960002DE9FF5F9446DCF800104FF03C02B1FB2C
:10097000F2F303FB02F4A1EB0405D54ED6F8008098
:1009800045451CD035604FF00A02B5FBF2F63446FF
:100990004FF0030240F29F104FF0A401FFF76CFFED
:1009A0004FF00A0204FB02F7A5EB0708444640F2A9
:1009B000BD104FF0A4014FF00302FFF75DFF4FF0B1
:1009C0003C02B3FBF2F909FB02FAA3EB0A0BDFF8D6
:1009D0000483D8F80060B3451DD0C8F800B04FF0CC
:1009E0000A02BBFBF2FC64464FF0E1004FF05E01EF
:1009F0004FF00902FFF740FF4FF00A020CFB02F82C
:100A0000ABEB080A544640F23B104FF05E014FF04A
:100A10000902FFF731FFDFF8C082D8F80060B14566
:100A20001CD0C8F800B04FF00A02B9FBF2FA5446E5
:100A30004FF019004FF05E014FF00902FFF71CFF65
:100A40004FF00A020AFB02FBA9EB0B044FF0730004
:100A50004FF05E014FF00902FFF70EFFBDE8FF9F68
:100A60002DE9FF5F4FF009024FF000044FF019002D
:100A70004FF05E01FFF700FF4FF000044FF07300EE
:100A80004FF05E01FFF7F8FE4FF000044FF0E10079
:100A90004FF05E01FFF7F0FE4FF0000440F23B1014
:100AA0004FF05E01FFF7E8FE40F29F104FF0A40107
:100AB0004FF003024FF00004FFF7DEFE40F2BD10DE
:100AC0004FF0A4014FF00004FFF7D6FE4FF4C870BA
:100AD0004FF0BE014FF001024FF00A064FF00A0B33
:100AE0007E4BFFF7AFFD4FF0C9004FF074014FF0A0
:100AF00002024FF00A064FF00A0B784BFFF7A2FDF7
:100B00004FF0C9004FF0A0014FF002024FF00A066B
:100B10004FF00A0B714BFFF795FDBDE8FF9F2DE9E4
:100B2000FF5F6F4A11684FF03C02B1FBF2F303FB29
:100B300002F4A1EB04054FF00A02B5FBF2F63446CD
:100B40004FF0030240F29F164FF0A407FFF794FE08
:100B50004FF00A0204FB02F7A5EB070844464FF0EA
:100B6000030240F2BD164FF0A407FFF785FE4FF0D9
:100B70003C02B3FBF2F909FB02FAA3EB0A0B4FF0BC
:100B80000A02BBFBF2FC64464FF0E1064FF05E0741
:100B9000FFF772FE0CFB02F8ABEB080A544640F27A
:100BA0003B164FF05E07FFF767FEB9FBF2FA5446BB
:100BB0004FF019064FF05E07FFF75EFE0AFB02FBDF
:100BC000A9EB0B044FF073064FF05E07FFF754FEDE
:100BD000BDE8FF9F2DE9FF5F424BFFF73EFE424B12
:100BE000FFF73BFE414BFFF738FE414BFFF735FE69
:100BF000BDE8FF9F2DE9FF5F3E4805684FF00A03FF
:100C0000B5FBF3F214464FF003024FF019004FF01A
:100C1000F001FFF731FE4FF00A0304FB03F7A5EBE9
:100C2000070844464FF003024FF037004FF0F00141
:100C3000FFF722FEBDE8FF9F2DE9FF5F2E4BFFF778
:100C40000CFE2E4BFFF709FE284BFFF706FEBDE812
:100C5000FF9F2DE9FF5F2A4805684FF00A03B5FBA7
:100C6000F3F214464FF003024FF0F0004FF0F001A2
:100C7000FFF702FE4FF00A0304FB03F7A5EB07089A
:100C800044464FF003024FF487704FF0F001FFF736
:100C9000F3FDBDE8FF9F2DE9FF5FFFF7ABFFFFF717
:100CA000D8FF00F02FFD08F0FF01DFF854A0CAF8CC
:100CB00000104FEA184202F0FF02DFF838A0CAF82D
:100CC0000020FFF797FFFFF7C4FFBDE8FF9F00007C
:100CD000120000200800002004000020DC2500088D
:100CE00020000020BC240008DC2300085C2400084D
:100CF0007C240008440000200C240008CC240008B8
:100D0000480000204FF0005108684FF000000860D4
:100D10004A4908684FF000000860494908684FF0E8
:100D200000000860474908684FF000000860464925
:100D300008684FF064000860444908684FF00000FC
:100D40000860434908684FF000000860414908689E
:100D50004FF000000860404908684FF0000008604C
:100D60003E4908684FF0010008603D4908684FF0AF
:100D7000000008603B4908684FF0000008603A49ED
:100D800008684FF000000860384908684FF000001C
:100D90000860374908684FF0000008603549086866
:100DA0004FF000000860344908684FF00000086008
:100DB0002F4908684FF00000086000F0EFF800F0DD
:100DC000A7F8FFF7EDFB00F080FC00F021F92B48BD
:100DD000016841F0080101602948016821F00F0114
:100DE00041F0030101604FF000004FF4F0734FF049
:100DF00000014FF4A0744FF6FF7AFFF7BAFBFFF73C
:100E00002FFE4FF019004FF0D2014FF002024FF0C9
:100E10000405FFF7DFFE4FF0F0004FF0D2014FF076
:100E200002024FF00405FFF707FFFFF7E3FEFFF7AD
:100E300010FFFFF730FF01F069F9FAE70400002026
:100E400008000020120000202000002024000020C4
:100E500036000020440000205200002056000020F0
:100E600060000020320000204000002064000020CC
:100E70006800002072000020760000201810024058
:100E8000000C01402DE9FF5F1C48016841F0C05192
:100E900001601B48016841F480710160016811F430
:100EA000807FFBD01748016841F0010101600168B3
:100EB00011F0020FFBD0016821F4407141F4807100
:100EC000016041F4004101600F48016811F0200FFA
:100ED000FBD041F0100101600C484FF0000181602F
:100EE00047F6FF71C1600848016821F010010160F8
:100EF000016811F0200FFBD0BDE8FF9F1C100240DD
:100F000000700040201002400428004000280040EB
:100F10000FB53248016841F00801016030480168AE
:100F200021F00F0141F0010101602E48016841F0FC
:100F3000010101602C48016841F0010101604FF09E
:100F400080404FF0480181624FF6FF71C1624FF05F
:100F50008040016841F0010101600FBD2DE9FF5F94
:100F60002148016841F00201016020484FF47A41B4
:100F700001601F4840F2654101601E48016841F070
:100F8000010101601C48016841F0005101601B48EB
:100F9000016841F001010160BDE8FF9F2DE9FF5F9D
:100FA0001148016841F00401016015484FF47A418D
:100FB0000160144840F2654101601348016841F046
:100FC000010101600C48016841F0804101600F4857
:100FD000016841F001010160BDE8FF9F1810024067
:100FE000000C01400C0C01401C1002402804004081
:100FF0002C0400400C04004000E100E0000400402C
:10100000280800402C0800400C0800400008004060
:101010002DE9FF5F1748016841F0010141F0080127
:1010200001601548016821F4700141F4000101607C
:101030001248016821F4005101601148016821F053
:10104000F00141F0100101600E48016841F40051C7
:1010500001600D48016841F4005101600B480168CE
:1010600021F4005101600A48016841F48071016077
:10107000BDE8FF9F18100240040C01400C0C014019
:1010800014000140000401400C0401400804014028
:1010900004E100E007B59249086820F48070086018
:1010A000086820F0FF0002F0FF0240EA020008603A
:1010B0008B49086840F48070086007BD03B5884913
:1010C000086820F400700860FFF7E4FF03BD03B573
:1010D0008349086840F400700860FFF7DBFF03BD38
:1010E00007B57F49086840F40060086000F0CCF85C
:1010F0007B49086820F40060086000F0C5F8784972
:10110000086840F40060086000F0BEF874490868A0
:1011100040F4806008607249086840F4807008609C
:101120006F49086820F4806008604FF0C502FFF73F
:10113000C5FF4FF07F02FFF7CAFF4FF00002FFF735
:10114000C6FF4FF03602FFF7B9FF4FF02802FFF756
:10115000BEFF4FF03A02FFF7B1FF4FF05502FFF725
:10116000B6FF4FF01102FFF7A9FF00F08DF84FF026
:101170002902FFF7A3FF00F087F84FF02002FFF7E6
:101180009DFF4FF02C02FFF799FF07BD2DE9FF5F90
:10119000A1F10101A4F101044FF02A02FFF78EFF33
:1011A0004FEA1022FFF793FF0246FFF790FF4FEA46
:1011B0001122FFF78CFF0A46FFF789FF4FF02B0241
:1011C000FFF77CFF4FEA1322FFF781FF1A46FFF774
:1011D0007EFF4FEA1422FFF77AFF2246FFF777FFE0
:1011E0004FF02C02FFF76AFFBDE8FF9F2DE91F4477
:1011F0003B4B1C6824F400441C600B4600F10101C9
:1012000003F10104FFF7C2FF4FF02C02FFF756FF76
:101210004FEA1A22FFF75BFF5246FFF758FFBDE87F
:101220001F842DE9FF5F0E4619463346FFF7AEFFD8
:10123000091AE41A04FB01F54FEA1A22FFF747FFE7
:101240005246FFF744FF6D1E002DF5DABDE8FF9F03
:101250002DE9FF5F2349086840F004000860224838
:1012600001684FF011310160204801684FF01131E1
:1012700001601B4908684FF0000040F4FE40086020
:10128000FFF72EFFBDE8FF9F2DE90041DFF86080EA
:10129000B8F10108B8F1000FFADABDE800812DE9D4
:1012A0000041DFF84C80B8F10208B8F1000FFADA1B
:1012B000BDE800812DE90041DFF83480B8F57A7887
:1012C000B8F1000FFADABDE800812DE90041DFF83E
:1012D0002080B8F16408B8F1000FFADABDE80081A7
:1012E0000C080140181002400008014004080140A9
:1012F000046018002DE9FF5F1F6804460D464FF09B
:10130000200802FB06F981444C4506D304461544E7
:1013100002FB0BF989444D451ED24FEAD779B9F14A
:10132000010F2DE9FF0720462946034613440C46CA
:1013300014440CBF4FF0000A4FF6FF7AFFF771FF1D
:10134000BDE8FF0714444FEA4707B8F10108D8D1B8
:1013500003F104031F68D2E7BDE8FF9F2DE9FF5F9B
:101360008F4B00F0D2F88F4B00F0CFF88C4B00F091
:10137000CCF88D4B00F0C9F88C4B00F0C6F88C4BC4
:1013800000F0C3F88A4B00F0C0F8894B00F0BDF8BC
:10139000874B00F0BAF8BDE8FF9F2DE9FF5F854B52
:1013A00000F0B3F8844B00F0B0F8804B00F0ADF8DB
:1013B000824B00F0AAF87C4B00F0A7F87C4B00F0C1
:1013C000A4F87B4B00F0A1F8794B00F09EF8784B25
:1013D00000F09BF8BDE8FF9F2DE9FF5F784B00F020
:1013E00094F8704B00F091F8764B00F08EF8744B47
:1013F00000F08BF8744B00F088F86D4B00F085F826
:101400006B4B00F082F86A4B00F07FF8684B00F0FD
:101410007CF8BDE8FF9F2DE9FF5F6C4B00F075F88D
:10142000644B00F072F8674B00F06FF8684B00F007
:101430006CF8684B00F069F8594B00F066F85D4BAA
:1014400000F063F85E4B00F060F8634B00F05DF86D
:10145000BDE8FF9F2DE9FF5F5C4B00F056F85F4B46
:1014600000F053F85E4B00F050F8BDE8FF9F2DE907
:10147000FF5F4E4B00F049F8524B00F046F8584BD6
:1014800000F043F8BDE8FF9F2DE9FF5F494B00F0F6
:101490003CF8524B00F039F8484B00F036F8BDE804
:1014A000FF9F2DE9FF5F4B4B00F02FF8434B00F0FF
:1014B0002CF84C4B00F029F8BDE8FF9F2DE9FF5FA9
:1014C0003C4B00F022F8444B00F01FF8434B00F077
:1014D0001CF8BDE8FF9F2DE9FF5F434B00F015F8B6
:1014E000314B00F012F8344B00F00FF8BDE8FF9FCD
:1014F0002DE9FF5F354B00F008F8294B00F005F8A7
:101500002C4B00F002F8BDE8FF9F00B54FF0090634
:101510004FF00C0BFFF7EEFE4FF0090402FB04F94D
:10152000814409EB050000BD2DE9FF5F4FF0040584
:101530004FF009064FF00C0B224B002C08BFFFF7B1
:10154000D9FE2A4B012C08BFFFF7D4FE284B022CF2
:1015500008BFFFF7CFFE274B032C08BFFFF7CAFEDB
:10156000254B042C08BFFFF7C5FE244B052C08BFF4
:10157000FFF7C0FE224B062C08BFFFF7BBFE214B36
:10158000072C08BFFFF7B6FE1F4B082C08BFFFF75C
:10159000B1FE1E4B092C08BFFFF7ACFEBDE8FF9F54
:1015A000BC3200086C330008BC3300087C330008F0
:1015B0004C340008DC3300083C330008FC320008DF
:1015C000DC320008EC3400085C330008CC3300083F
:1015D0009C3300080C3400082C330008EC3300085E
:1015E0008C330008EC3200080C3300089C340008EF
:1015F000DC340008CC3400087C3400086C3400086B
:10160000BC340008AC3400085C3400088C3400089A
:101610002DE9FF5F3348016841F0080141F0010105
:1016200001603148016821F4702141F4002101601A
:101630002E48016821F00F0141F0010101602C48A2
:10164000016841F0100101602A48016841F0100171
:1016500001602948016821F01001016027480168F4
:1016600041F480610160BDE8FF9F2DE9FF5F1E48E6
:10167000016821F4700141F4000101602048016813
:1016800041F020010160BDE8FF9F2DE9FF5F164892
:10169000016821F0706141F0006101601848016843
:1016A00041F040010160BDE8FF9F2DE9FF5F0E485A
:1016B000016821F0704141F000410160104801686B
:1016C00041F080010160BDE8FF9F2DE9FF5FFFF75A
:1016D0009FFFFFF7CAFFFFF7D8FFFFF7E6FFBDE860
:1016E000FF9F000018100240000C01400C00014058
:1016F00000040140080401400C04014000E100E046
:101700000C0C0140FFB53648016821F0F00141F0B2
:10171000300101603348016821F40071016044F236
:10172000506200F050F82F48016841F400710160E8
:101730004FF01E0200F047F82948016821F0F0013F
:1017400041F0800101604FF0280200F03CF826488B
:10175000016811F4007FFAD14FF0500200F033F825
:101760002148016811F4007FFAD04FF005064FF0D0
:1017700000074FF000084FF000044FF008051A482A
:10178000016811F4007FFAD11748016811F4007F55
:10179000FAD04FF000021448016802F1010211F47E
:1017A000007FF8D14FEA44046E2A01D944F00104C5
:1017B0006D1EE4D104FA07F448EA040807F10807AB
:1017C000761ED8D1FFBD3FB54FF08040436A456AD1
:1017D000AB42FCD0521E002A00D0F8E73FBD00000B
:1017E000040C01400C0C0140080C014007B5924963
:1017F000086820F480700860086820F0FF0002F09C
:10180000FF0240EA020008608B49086840F48070DB
:10181000086007BD03B58849086820F400700860B7
:10182000FFF7E4FF03BD03B58349086840F4007087
:101830000860FFF7DBFF03BD07B57F49086840F488
:101840000060086000F0CCF87B49086820F4006074
:10185000086000F0C5F87849086840F40060086046
:1018600000F0BEF87449086840F48060086072496E
:10187000086840F4807008606F49086820F4806050
:1018800008604FF0C502FFF7C5FF4FF07F02FFF77A
:10189000CAFF4FF00002FFF7C6FF4FF03602FFF716
:1018A000B9FF4FF02802FFF7BEFF4FF03A02FFF7F3
:1018B000B1FF4FF05502FFF7B6FF4FF01102FFF7EF
:1018C000A9FF00F08DF84FF02902FFF7A3FF00F009
:1018D00087F84FF02002FFF79DFF4FF02C02FFF733
:1018E00099FF07BD2DE9FF5FA1F10101A4F10104FA
:1018F0004FF02A02FFF78EFF4FEA1022FFF793FF07
:101900000246FFF790FF4FEA1122FFF78CFF0A46CD
:10191000FFF789FF4FF02B02FFF77CFF4FEA1322FE
:10192000FFF781FF1A46FFF77EFF4FEA1422FFF709
:101930007AFF2246FFF777FF4FF02C02FFF76AFF8E
:10194000BDE8FF9F2DE91F443B4B1C6824F4004475
:101950001C600B4600F1010103F10104FFF7C2FF17
:101960004FF02C02FFF756FF4FEA1A22FFF75BFFFA
:101970005246FFF758FFBDE81F842DE9FF5F0E4672
:1019800019463346FFF7AEFF091AE41A04FB01F5C6
:101990004FEA1A22FFF747FF5246FFF744FF6D1E3A
:1019A000002DF5DABDE8FF9F2DE9FF5F23490868A8
:1019B00040F004000860224801684FF011310160D6
:1019C000204801684FF0113101601B4908684FF051
:1019D000000040F4FE400860FFF72EFFBDE8FF9FC7
:1019E0002DE90041DFF86080B8F10108B8F1000F7F
:1019F000FADABDE800812DE90041DFF84C80B8F14A
:101A00000208B8F1000FFADABDE800812DE90041C3
:101A1000DFF83480B8F57A78B8F1000FFADABDE86B
:101A200000812DE90041DFF82080B8F16408B8F1A9
:101A3000000FFADABDE800810C08014018100240DE
:101A40000008014004080140046018002DE9FF5F10
:101A50001F6804460D464FF0200802FB06F981443A
:101A60004C4506D30446154402FB0BF989444D4509
:101A70001ED24FEAD779B9F1010F2DE9FF072046B1
:101A80002946034613440C4614440CBF4FF0000A89
:101A90004FF6FF7AFFF771FFBDE8FF0714444FEAE6
:101AA0004707B8F10108D8D103F104031F68D2E752
:101AB000BDE8FF9F2DE9FF5F8F4B00F0D2F88F4B01
:101AC00000F0CFF88C4B00F0CCF88D4B00F0C9F84B
:101AD0008C4B00F0C6F88C4B00F0C3F88A4B00F03A
:101AE000C0F8894B00F0BDF8874B00F0BAF8BDE8AC
:101AF000FF9F2DE9FF5F854B00F0B3F8844B00F0AA
:101B0000B0F8804B00F0ADF8824B00F0AAF87C4BA7
:101B100000F0A7F87C4B00F0A4F87B4B00F0A1F894
:101B2000794B00F09EF8784B00F09BF8BDE8FF9FE2
:101B30002DE9FF5F784B00F094F8704B00F091F8BE
:101B4000764B00F08EF8744B00F08BF8744B00F07D
:101B500088F86D4B00F085F86B4B00F082F86A4B0B
:101B600000F07FF8684B00F07CF8BDE8FF9F2DE99E
:101B7000FF5F6C4B00F075F8644B00F072F8674B38
:101B800000F06FF8684B00F06CF8684B00F069F8F3
:101B9000594B00F066F85D4B00F063F85E4B00F0C7
:101BA00060F8634B00F05DF8BDE8FF9F2DE9FF5F33
:101BB0005C4B00F056F85F4B00F053F85E4B00F0C2
:101BC00050F8BDE8FF9F2DE9FF5F4E4B00F049F84C
:101BD000524B00F046F8584B00F043F8BDE8FF9F29
:101BE0002DE9FF5F494B00F03CF8524B00F039F80B
:101BF000484B00F036F8BDE8FF9F2DE9FF5F4B4BE7
:101C000000F02FF8434B00F02CF84C4B00F029F873
:101C1000BDE8FF9F2DE9FF5F3C4B00F022F8444BED
:101C200000F01FF8434B00F01CF8BDE8FF9F2DE9C2
:101C3000FF5F434B00F015F8314B00F012F8344BC6
:101C400000F00FF8BDE8FF9F2DE9FF5F354B00F076
:101C500008F8294B00F005F82C4B00F002F8BDE81D
:101C6000FF9F00B54FF009064FF00C0BFFF7EEFE9B
:101C70004FF0090402FB04F9814409EB050000BDA3
:101C80002DE9FF5F4FF004054FF009064FF00C0BF4
:101C9000224B002C08BFFFF7D9FE2A4B012C08BFAE
:101CA000FFF7D4FE284B022C08BFFFF7CFFE274BCF
:101CB000032C08BFFFF7CAFE254B042C08BFFFF713
:101CC000C5FE244B052C08BFFFF7C0FE224B062C97
:101CD00008BFFFF7BBFE214B072C08BFFFF7B6FE7E
:101CE0001F4B082C08BFFFF7B1FE1E4B092C08BF85
:101CF000FFF7ACFEBDE8FF9FDC4100088C42000806
:101D0000DC4200089C4200086C430008FC420008CA
:101D10005C4200081C420008FC4100080C4400081A
:101D20007C420008EC420008BC4200082C4300083A
:101D30004C4200080C430008AC4200080C4200086A
:101D40002C420008BC430008FC430008EC43000898
:101D50009C4300088C430008DC430008CC43000887
:101D60007C430008AC4300082DE9FF5F9446DCF893
:101D700000104FF03C02B1FBF2F303FB02F4A1EBC5
:101D80000405D54ED6F8008045451CD035604FF08F
:101D90000A02B5FBF2F634464FF0030240F29F1000
:101DA0004FF0A401FFF76CFF4FF00A0204FB02F7AB
:101DB000A5EB0708444640F2BD104FF0A4014FF0D8
:101DC0000302FFF75DFF4FF03C02B3FBF2F909FBA2
:101DD00002FAA3EB0A0BDFF80483D8F80060B345DE
:101DE0001DD0C8F800B04FF00A02BBFBF2FC6446FD
:101DF0004FF0E1004FF05E014FF00902FFF740FFA6
:101E00004FF00A020CFB02F8ABEB080A544640F212
:101E10003B104FF05E014FF00902FFF731FFDFF892
:101E2000C082D8F80060B1451CD0C8F800B04FF0AF
:101E30000A02B9FBF2FA54464FF019004FF05E0166
:101E40004FF00902FFF71CFF4FF00A020AFB02FBEA
:101E5000A9EB0B044FF073004FF05E014FF0090245
:101E6000FFF70EFFBDE8FF9F2DE9FF5F4FF009026E
:101E70004FF000044FF019004FF05E01FFF700FF34
:101E80004FF000044FF073004FF05E01FFF7F8FED3
:101E90004FF000044FF0E1004FF05E01FFF7F0FE5D
:101EA0004FF0000440F23B104FF05E01FFF7E8FEF8
:101EB00040F29F104FF0A4014FF003024FF00004D6
:101EC000FFF7DEFE40F2BD104FF0A4014FF000041A
:101ED000FFF7D6FE4FF4C8704FF0BE014FF001027D
:101EE0004FF00A064FF00A0B7E4BFFF7AFFD4FF0A5
:101EF000C9004FF074014FF002024FF00A064FF094
:101F00000A0B784BFFF7A2FD4FF0C9004FF0A0017C
:101F10004FF002024FF00A064FF00A0B714BFFF729
:101F200095FDBDE8FF9F2DE9FF5F6F4A11684FF0F7
:101F30003C02B1FBF2F303FB02F4A1EB04054FF00A
:101F40000A02B5FBF2F634464FF0030240F29F1648
:101F50004FF0A407FFF794FE4FF00A0204FB02F7CC
:101F6000A5EB070844464FF0030240F2BD164FF0C0
:101F7000A407FFF785FE4FF03C02B3FBF2F909FB23
:101F800002FAA3EB0A0B4FF00A02BBFBF2FC644619
:101F90004FF0E1064FF05E07FFF772FE0CFB02F810
:101FA000ABEB080A544640F23B164FF05E07FFF7D2
:101FB00067FEB9FBF2FA54464FF019064FF05E0780
:101FC000FFF75EFE0AFB02FBA9EB0B044FF0730662
:101FD0004FF05E07FFF754FEBDE8FF9F2DE9FF5F5E
:101FE000424BFFF73EFE424BFFF73BFE414BFFF7F4
:101FF00038FE414BFFF735FEBDE8FF9F2DE9FF5F3F
:102000003E4805684FF00A03B5FBF3F214464FF063
:1020100003024FF019004FF0F001FFF731FE4FF0CF
:102020000A0304FB03F7A5EB070844464FF003023D
:102030004FF037004FF0F001FFF722FEBDE8FF9FA1
:102040002DE9FF5F2E4BFFF70CFE2E4BFFF709FE2D
:10205000284BFFF706FEBDE8FF9F2DE9FF5F2A48EA
:1020600005684FF00A03B5FBF3F214464FF0030284
:102070004FF0F0004FF0F001FFF702FE4FF00A03BF
:1020800004FB03F7A5EB070844464FF003024FF4A7
:1020900087704FF0F001FFF7F3FDBDE8FF9F2DE9DA
:1020A000FF5FFFF7ABFFFFF7D8FFFFF72BFB08F051
:1020B000FF01DFF854A0CAF800104FEA184202F0FE
:1020C000FF02DFF838A0CAF80020FFF797FFFFF7FC
:1020D000C4FFBDE8FF9F00001200002008000020A0
:1020E000040000201C44000820000020FC420008DE
:1020F0001C4200089C420008BC420008440000202A
:102100004C4200080C430008480000202DE9FF5F06
:102110009649D1F80080B8F1000F08BF00F011F81F
:10212000B8F1010F08BF00F02FF8B8F1020F08BF97
:1021300000F04CF8B8F1030F08BF00F058F8BDE804
:10214000FF9F2DE9FF5F8A4B1C688A48016811F0E8
:10215000400F08BF84F001041C604FF019004FF0DD
:1021600019014FF002024FF00405FFF7E1FC80482F
:102170000168012902D018BF00F074F84FF0005236
:10218000FFF7F2FDBDE8FF9F2DE9FF5F7A4B1C686A
:102190007848016811F0400F08BF84F001041C600A
:1021A0004FF019004FF019014FF002024FF00405F3
:1021B000FFF780FC70480168012902D018BF00F0C9
:1021C00098F86E4AFFF7D0FDBDE8FF9F2DE9FF5F4D
:1021D0004FF019004FF019014FF002024FF00405C3
:1021E000FFF787FC664AFFF7BFFDBDE8FF9F2DE9BB
:1021F000FF5F4FF019004FF019014FF002024FF04E
:102200000405FFF7B4FC5F4A13685A48016811F0EF
:10221000400F08BF83F001031360012B09D15A4816
:10222000016881F001010160012B08BF0023012B2F
:10223000FFD05048016811F0200F08D153484FF0EB
:10224000000202604F4A13684FF0000313604F4AC8
:10225000FFF78AFD4748016811F0000F00D0D2E770
:10226000BDE8FF9F2DE9FF5F4248016811F0400F74
:1022700005D1474801684FF00101016032E03D4857
:10228000016811F0200F0AD14FF00050016801F1F0
:102290003C010160DFF8FCB059451ED30ED835482B
:1022A000016811F0800FDFD14FF00050016801F597
:1022B00061610160DFF8DCB059450ED3DFF8D4B0BE
:1022C00059450AD3A1EB0B010160334D2E6806F18D
:1022D0000106072E08BF00262E604FF00052FFF7C0
:1022E00043FDC1E7224801684FF001010160BDE8EC
:1022F000FF9F2DE9FF5F1F48016811F0400F05D1D6
:102300001D4801684FF00101016027E0194801688C
:1023100011F0200F09D11948016801F13C01016059
:10232000DFF870B0594515D30DD81248016811F087
:10233000800FE0D11148016801F561610160DFF8AB
:1023400054B0594506D3DFF84CB0594502D3A1EB40
:102350000B010160094AFFF707FDCCE70648016859
:102360004FF001010160BDE8FF9F00002400002044
:1023700064000020080C014068000020400000209C
:1023800020000020600000200C0C014032000020E2
:1023900036000020805101001600002078F07F7F79
:1023A000FFFF1F3CF0E0C1830000307878F07FFF32
:1023B000FDFB1F3CFFE0C1830000E0FF78F07F7F62
:1023C0000103060CFF60C0800000E0EFF8F07FFF23
:1023D000070F1E3CFFE1C1830000E0FF18F0FFFF84
:1023E000F9F3070C3F60C0800000F0FF18F0FFFF1A
:1023F000F9F3070C3060C0800000001818F0FF7F70
:102400003F7B060CFFE0C19B0000E0EF78F0E0C1ED
:10241000FFFF1F3CF0E0C183000030780103061E7F
:102420003060C08003060C180000C0038001030F59
:10243000183060C03F63060C0000808F9BB3E3C37D
:10244000E183878FB063CEB8000030F8183060C0E9
:102450000103060C7F60C0800000F0FF7CF0E0C14B
:1024600077FF7F7FF0E0C193000030787FFCF0C100
:102470001F7FDE3DF0E0C1870000307878F07FFFFD
:10248000FDFF1F3C3060C0800000001878F07F7FA7
:10249000070F1E3CBFE3C3830000B0EF78F07FFF5F
:1024A000FDFF1F3C3167DCF0000070D818F0FF7FA3
:1024B000FEF9070CFF8001030000E0FF21D3BF7F7E
:1024C0003060C08003060C180000800178F0E0C185
:1024D000070F1E3CFFE0C1830000E0EF78F0E0C191
:1024E000070F1E3C8FBFE3830000808378F0E0C1BC
:1024F000FFEF9E3CF0E0E3EF00003078C7DDF1C174
:1025000070E0C0C1F071777C00001070C3CCB06186
:102510003060E0C103060C180000800160C0FFFFBE
:10252000707070703F7070700000F0FFFFFFFFFF71
:10253000FFFFFFFFFFFFFFFFFFFFFFFF78F07F7F41
:10254000FDF91B3CFFE0C1830000E0EF18F0FFFF46
:10255000FEF9070CFF8001030000E0FFD8B061C363
:10256000FEFD376C80010306000060C078F07F7FBD
:10257000FEFD1F3CFF8001030000E0FF03061C3846
:1025800060C080010F0C18300000800760C0BF7F62
:102590001830306003060C0C0000800118F0FF7F3B
:1025A000FFFF070CFFE0C1830000E0EF60C07FFF8A
:1025B000FCF81930FF8001030000E0FF60C07FFFDE
:1025C000FFFF1B303F60C0800000F0FF78F07F7F8E
:1025D000070F1E3CFFE0C1830000E0EFF18307001E
:1025E000E79F7FFE001EFCF80000000007000000CF
:1025F000C00738000FC0073EE3E3C7878F71FC8F29
:10260000FF8F18FFF0FF0FC407F8F307FC03FEF974
:102610007FFE03FFE03FFFC13FF08FFFF91FF0E3B4
:10262000FCFF07F800FCFF01FF00FEFFFEEF80FF4C
:1026300070FE73E0000000000000000000000000D9
:10264000000000000000000000000000000000008A
:10265000000000000000000000000000000000007A
:10266000000000000000000000000000000000006A
:10267000000000000000000000000000000000005A
:10268000000000000000000000000000000000004A
:10269000000000000000000000000000000000003A
:1026A000000000000000000000000000000000002A
:1026B000000000000000000000000000000000001A
:1026C000000000000000000000000000000000000A
:1026D00000000000000000000000000000000000FA
:1026E00000000000000000000000000000000000EA
:1026F00000000000000000000000000000000000DA
:1027000000000000000000000000000000000000C9
:1027100000000000000000000000000000000000B9
:1027200000000000000000000000000000000000A9
:102730000000000000000000000000000000000099
:102740000000000000000000000000000000000089
:102750000000000000C001000000000000000000B8
:10276000000000000000000000000000C0030000A6
:102770000000000000000000000000000000000059
:102780000000000001000000000000C00000000088
:102790000000000000000000000000000000000039
:1027A0000000F01300000000000000000000001C0A
:1027B000000000000000000000F00F00000000001A
:1027C00000000000000018000000000000000000F1
:1027D000E01F0000000000000000000000000000FA
:1027E00000000000000000003F000000000000ECBE
:1027F00000020000660F0000000000000000000062
:10280000000000000000FF7F020006000F00000033
:10281000000080FF000000000000000000FE7F00BC
:1028200000060000000000020000FF0F0000000092
:1028300000000000FEFF0000060000000000021E75
:1028400000FF07000000000000000000FF01000082
:10285000000020FE00C23F06FF87000000000010BD
:10286000000000000300000000E0E1FF00000000A5
:10287000FF010000000010FF000000000000000049
:10288000FDE1FF1FC00400007F0000020010FFFFF9
:10289000000000000000000003000000000000FD38
:1028A0000000204008FFFF7F000000000000000043
:1028B00000C0000000FCFC0300043F02FDFFBF3F1E
:1028C0000000008F0000000080000000FC3F0200BC
:1028D000463E0200FFFF7F00000009F300000000F9
:1028E000000000007F0000402E0200FCFF3F0004BB
:1028F0000001F0FF00000000000000000000FF00E9
:10290000F47FFC3F7F3E800E01F8FFFF0000004097
:102910000000000000F30000FFFF7F00FFFFFFFF4B
:10292000FCFFFFFF0000F00100000000F8000000C5
:10293000FF7F0000FFFFFFFFFFFFFFFF00E001FC44
:1029400000000000000000007F000078FFFFFFFF94
:10295000FFFFFFFFF001FCFF00000000000000008F
:1029600000007800FFFFFF7FFFFFFFFF01FCFFFF7C
:10297000000000E20000000000C007007FF84300F4
:10298000FF0500FACFFAFFFF00003E8000000000C4
:10299000C0070000F84300000700F27FFAFFFFFFC6
:1029A000003C800F000000001F0000007F0000C0FE
:1029B00000FEFFFFFFFFFF073C008FFB0000000051
:1029C00000000000001FC0A7F17FFC63FFFFF9FBC0
:1029D000F05FF8FF0000C03C000000000F80F8002E
:1029E0007FFC2300FFF1FFF47FFCFFC700C027F04E
:1029F0000000000000F800000060001F0500F27FEA
:102A0000FCFFE3FF8007F07F00000000FC000000F7
:102A10002002BF0000F27F00FFE3FF0503F07FFC10
:102A2000000000E00000000003FD00FEFE7F00202B
:102A3000E3FF0700F07F4CF200007003000000008D
:102A4000F00078007F000002FFC73FFE7F80E3E3D5
:102A5000003000F00000000000F80200000003F861
:102A6000C73FFE7FA0E3E3FFB000E27F000000006D
:102A7000F80200000002F8003FFE7F00A3E3FFC75A
:102A800000E27FE000000030070000001EC0078861
:102A9000FFFF8103E3FF3FC01E7B00E00000F0006A
:102AA000000000004004883FFF810311FF3F40FF0A
:102AB0007000E0E300BE001E0000000006B83F000A
:102AC000810313C03F40FFFF00E0E3FFFE00DE7321
:102AD00000000000C03F00000FF400193FFFFF811D
:102AE000E0E3FFDFC03F78000000003EFF00000091
:102AF000BC001FC0FFDF810FE37FF2FF0D7C00E011
:102B000000003E4000000000000000FA8F810F9C92
:102B1000BFE8FFFF7C00E0E3003E400C0000000047
:102B20000000FE00810F9C01F8FFFF8F00E0E3BF73
:102B30003E600E7C00000040007E00000F7C030021
:102B4000FFFF8F81E0E3BFF8B00B7C000000C03FC7
:102B5000BE000000E00100000080810F03FD0000C6
:102B6000017C00E000C03FF007000000110000BE43
:102B700080810FE0DF0600007C60E003C03FF001D1
:102B80000000000000003E06810FE01307000080F7
:102B900060E003FD3FF0017C000000C006F0030090
:102BA0007F201E0000008081E0031F0720000C60D2
:102BB0000000C007F0070000A01E00040080807F16
:102BC000031F0700000840E000F807200300000092
:102BD0001F0004F080807FE01F0500000840E00334
:102BE000F807300000000000C039F0038E7F001F9E
:102BF000F9FF017E5CE0031F0706800F000000F86C
:102C00002FC03F003E001FC0FF01FE8FE00303F313
:102C100002800F7C0000F807F03F0000001FC02F6B
:102C200001FE8F7F031FEFFF800F7CE00038070657
:102C30003F0000001FC06781FE0F3C0210F8FF013B
:102C40000F7CE003FE00008000000000C04F813FC9
:102C50000FFC021FF8FF01FE7CE003100000800F54
:102C6000000000FEFF013E0000001FC0FF01FE0F3C
:102C7000E00318F800800F7C0000FE00017E0000D9
:102C8000001FC0FF01FE0F000318F8FF800F7CE05B
:102C900000FE00003E0000001FC0FF01FE0F00000C
:102CA00018F8FF010F7CE003FE0000800100000027
:102CB00080F801D60F00001040FF01F248E0030049
:102CC000000080010000001CFA07D601000000008F
:102CD000FE01F60FE003004000F001600000180064
:102CE00007DE01000018C0F901EE0F000318C0FF55
:102CF000F0015CE0001E0000F0010000C000FC07D5
:102D0000900F00030000FE060140E00318003EF0B3
:102D10000F00000000FE07F0070003C000FE07F0F0
:102D200040E00300003CF0010000C007FE07F00F88
:102D30000003C000FE07F00FE00300003EF001605A
:102D400000C01F0007F00F001DC007FE07F077004E
:102D5000030000FEF00100E0C007C03DF00F0000DE
:102D6000C007FE07F057001D0000FE070100E0034A
:102D700007C03DF00E0000C005F807007F001F00EF
:102D800000F007F000E00300C0031000000080071F
:102D9000F807000E009F0019F007F07FE003010024
:102DA0000310800F008807E807000E009F0011F84D
:102DB00007F07F00030100F0108007E08007C803E0
:102DC000000E00000008C007D07F00FF0300C0060F
:102DD000800FE00300F807303C0000F818C0030043
:102DE0007F00FF0338C006907FE00303FE073EF03C
:102DF0000000F800C007803F00FF0308C005F07F17
:102E0000E0030338073EF07F00F800FC00003C00C0
:102E1000FF03E8003A807F00031FD8003EF07FE008
:102E2000F8C0FD07002C000001F80000807F00F8CA
:102E30001FF8003EF07FE003C0FF073E2C0000F8C3
:102E4000F80000007F00F303F8003E807FE0031FDE
:102E5000FF073EF00000E0C00700F03103ECFFF791
:102E6000073E80BFE0031FF8073EF07F0018C0FF59
:102E700000F0B101F4F3F7063E80BF03031FF8072B
:102E80003EF07FE01BC0FF07F0F10100FFFF0700ED
:102E900080FF03FC00F80710F07FE00380FF070EBF
:102EA000FF01001FFF2700D6FF03FCFFF807808FFC
:102EB0007FE003E0FF070AF001001FC82700CAED0A
:102EC00003FCFFFF07608FFFE00380F8070AF07F35
:102ED000001FC8FF00FEFB01E0FFFF2FE08FFF0394
:102EE00003A0F8070EF07FE01FF8FF073FFC01008A
:102EF000FFFFFFFFFFFF03E0F8FF3FF0F0FFFF03DE
:102F0000FFFFFF3FFF0100FFFFFFFFFFFF03E0FFA9
:102F1000FF3FF0FFFFFF03F8FFFF3FF00000FFFF60
:102F2000FFFF3F000FE0FFFF3FF0FFFFFF03F8FF51
:102F3000FF3FF0FF00FFFFFFFF370000E0FFFFFF54
:102F4000F0FFFF0F03F8FF3F1FF0FFFFFFFFFFFF42
:102F500007000000FFFFFFFFFFFF0FE0F8FF3FF05B
:102F6000F0FFFF03FFFFFF3F000000FFFFFFFF0731
:102F7000FF0FE0FFFFCFFFFFFFFF03F8FFFFDFF1D1
:102F80000000FFFFFFFF03000FE0FFFFDFFFFFFF79
:102F9000FF03F8FFFF3FF1FF00FFFFFF7F0000008E
:102FA000E0FFFFFFFFFFFF0F03F8FFFFFFF1FFFF51
:102FB000070080FF00000000FFFFFFFFFFFF0FFF83
:102FC000F8FFFFFFF1FFFF0300C0FFFF0000000755
:102FD000FFFF3F00FF0FFEFFFFFFFFFFFFFF03F8B4
:102FE000C0FFFFF100000F00807F00000FFE7F0098
:102FF000FFFFFFFFFF03F8FFEEFFF1FF00010000FE
:103000000B000000FF1F0080FFFFFFFFFFFFFFFF1F
:10301000FFFFFFFF020000E0000000000F0080271C
:10302000FFFFFFFFFFFFFFFFFFFFFFFF0000E2FFCB
:103030000000000200002000FFFFFF0FFFFFFFFF66
:10304000FFFFFFFF00E0FFFF000000000030000076
:10305000FFFF0300FFFFFFFFEFFFFFFEE0FFFFFFAB
:103060000000000000000000C0130000FF3F00004F
:103070000000FEFF00E0FF0F000000000000000065
:10308000030000003F0000C000FEFFFFE0FF0F0054
:103090000000000000000000000000000000C0016F
:1030A000FEFFFF3FFF070000000000E000000000FF
:1030B0000000000000000000FF7F00000000000092
:1030C0000000007F00000000000000000000000081
:1030D0007F000000000080FF00007F000000000073
:1030E0000000000000000000000000000000FEFFE3
:1030F000007F000000000000000000000000000051
:103100000000000000FE3F000C0000000000000076
:10311000000000000000000000000000F02F000090
:10312000000000000000000000000000000000009F
:10313000000000002F000000000000F80000000068
:10314000000000000000000000000000000000007F
:103150000000F00700000000000000000000000078
:10316000000000000000000000B0060000000000A9
:10317000000000000000000000000000000000004F
:10318000A00400000000000000000000000000009B
:1031900000000000000000000000000000000080AF
:1031A000000000000000000000000000000000001F
:1031B000000000000000800000000000000000008F
:1031C00000000000000000000000000000000000FF
:1031D00000000000000000000000000000000000EF
:1031E00000000000000000000000000000000000DF
:1031F00000000000000000000000000000000000CF
:1032000000000000000000000000000000000000BE
:1032100000000000000000000000000000000000AE
:10322000000000000000000000000000000000009E
:10323000000000000000000000000000000000008E
:10324000000000000000000000000000000000007E
:10325000000000000000000000000000000000006E
:10326000000000000000000000000000000000005E
:10327000000000000000000000000000000000004E
:10328000000000000000000000000000000000003E
:10329000000000000000000000000000000000002E
:1032A000000000000000000000000000000000001E
:1032B00000000000000000000000000078F07F7FA8
:1032C000FFFF1F3CF0E0C1830000307878F07FFF03
:1032D000FDFB1F3CFFE0C1830000E0FF78F07F7F33
:1032E0000103060CFF60C0800000E0EFF8F07FFFF4
:1032F000070F1E3CFFE1C1830000E0FF18F0FFFF55
:10330000F9F3070C3F60C0800000F0FF18F0FFFFEA
:10331000F9F3070C3060C0800000001818F0FF7F40
:103320003F7B060CFFE0C19B0000E0EF78F0E0C1BE
:10333000FFFF1F3CF0E0C183000030780103061E50
:103340003060C08003060C180000C0038001030F2A
:10335000183060C03F63060C0000808F9BB3E3C34E
:10336000E183878FB063CEB8000030F8183060C0BA
:103370000103060C7F60C0800000F0FF7CF0E0C11C
:1033800077FF7F7FF0E0C193000030787FFCF0C1D1
:103390001F7FDE3DF0E0C1870000307878F07FFFCE
:1033A000FDFF1F3C3060C0800000001878F07F7F78
:1033B000070F1E3CBFE3C3830000B0EF78F07FFF30
:1033C000FDFF1F3C3167DCF0000070D818F0FF7F74
:1033D000FEF9070CFF8001030000E0FF21D3BF7F4F
:1033E0003060C08003060C180000800178F0E0C156
:1033F000070F1E3CFFE0C1830000E0EF78F0E0C162
:10340000070F1E3C8FBFE3830000808378F0E0C18C
:10341000FFEF9E3CF0E0E3EF00003078C7DDF1C144
:1034200070E0C0C1F071777C00001070C3CCB06157
:103430003060E0C103060C180000800160C0FFFF8F
:10344000707070703F7070700000F0FFFFFFFFFF42
:10345000FFFFFFFFFFFFFFFFFFFFFFFF78F07F7F12
:10346000FDF91B3CFFE0C1830000E0EF18F0FFFF17
:10347000FEF9070CFF8001030000E0FFD8B061C334
:10348000FEFD376C80010306000060C078F07F7F8E
:10349000FEFD1F3CFF8001030000E0FF03061C3817
:1034A00060C080010F0C18300000800760C0BF7F33
:1034B0001830306003060C0C0000800118F0FF7F0C
:1034C000FFFF070CFFE0C1830000E0EF60C07FFF5B
:1034D000FCF81930FF8001030000E0FF60C07FFFAF
:1034E000FFFF1B303F60C0800000F0FF78F07F7F5F
:1034F000070F1E3CFFE0C1830000E0EFF1830700EF
:10350000E79F7FFE001EFCF800000000070000009F
:10351000C00738000FC0073EE3E3C7878F71FC8FF9
:10352000FF8F18FFF0FF0FC407F8F307FC03FEF945
:103530007FFE03FFE03FFFC13FF08FFFF91FF0E385
:10354000FCFF07F800FCFF01FF00FEFFFEEF80FF1D
:1035500070FE73E0000000000000000000000000AA
:10356000000000000000000000000000000000005B
:10357000000000000000000000000000000000004B
:10358000000000000000000000000000000000003B
:10359000000000000000000000000000000000002B
:1035A000000000000000000000000000000000001B
:1035B000000000000000000000000000000000000B
:1035C00000000000000000000000000000000000FB
:1035D00000000000000000000000000000000000EB
:1035E00000000000000000000000000000000000DB
:1035F00000000000000000000000000000000000CB
:1036000000000000000000000000000000000000BA
:1036100000000000000000000000000000000000AA
:10362000000000000000000000000000000000009A
:10363000000000000000000000000000000000008A
:10364000000000000000000000000000000000007A
:10365000000000000000000000000000000000006A
:10366000000000000000000000000000000000005A
:103670000000000000C00100000000000000000089
:10368000000000000000000000000000C003000077
:10369000000000000000000000000000000000002A
:1036A0000000000001000000000000C00000000059
:1036B000000000000000000000000000000000000A
:1036C0000000F01300000000000000000000001CDB
:1036D000000000000000000000F00F0000000000EB
:1036E00000000000000018000000000000000000C2
:1036F000E01F0000000000000000000000000000CB
:1037000000000000000000003F000000000000EC8E
:1037100000020000660F0000000000000000000032
:10372000000000000000FF7F020006000F00000004
:10373000000080FF000000000000000000FE7F008D
:1037400000060000000000020000FF0F0000000063
:1037500000000000FEFF0000060000000000021E46
:1037600000FF07000000000000000000FF01000053
:10377000000020FE00C23F06FF870000000000108E
:10378000000000000300000000E0E1FF0000000076
:10379000FF010000000010FF00000000000000001A
:1037A000FDE1FF1FC00400007F0000020010FFFFCA
:1037B000000000000000000003000000000000FD09
:1037C0000000204008FFFF7F000000000000000014
:1037D00000C0000000FCFC0300043F02FDFFBF3FEF
:1037E0000000008F0000000080000000FC3F02008D
:1037F000463E0200FFFF7F00000009F300000000CA
:10380000000000007F0000402E0200FCFF3F00048B
:103810000001F0FF00000000000000000000FF00B9
:10382000F47FFC3F7F3E800E01F8FFFF0000004068
:103830000000000000F30000FFFF7F00FFFFFFFF1C
:10384000FCFFFFFF0000F00100000000F800000096
:10385000FF7F0000FFFFFFFFFFFFFFFF00E001FC15
:1038600000000000000000007F000078FFFFFFFF65
:10387000FFFFFFFFF001FCFF000000000000000060
:1038800000007800FFFFFF7FFFFFFFFF01FCFFFF4D
:10389000000000E20000000000C007007FF84300C5
:1038A000FF0500FACFFAFFFF00003E800000000095
:1038B000C0070000F84300000700F27FFAFFFFFF97
:1038C000003C800F000000001F0000007F0000C0CF
:1038D00000FEFFFFFFFFFF073C008FFB0000000022
:1038E00000000000001FC0A7F17FFC63FFFFF9FB91
:1038F000F05FF8FF0000C03C000000000F80F800FF
:103900007FFC2300FFF1FFF47FFCFFC700C027F01E
:103910000000000000F800000060001F0500F27FBA
:10392000FCFFE3FF8007F07F00000000FC000000C8
:103930002002BF0000F27F00FFE3FF0503F07FFCE1
:10394000000000E00000000003FD00FEFE7F0020FC
:10395000E3FF0700F07F4CF200007003000000005E
:10396000F00078007F000002FFC73FFE7F80E3E3A6
:10397000003000F00000000000F80200000003F832
:10398000C73FFE7FA0E3E3FFB000E27F000000003E
:10399000F80200000002F8003FFE7F00A3E3FFC72B
:1039A00000E27FE000000030070000001EC0078832
:1039B000FFFF8103E3FF3FC01E7B00E00000F0003B
:1039C000000000004004883FFF810311FF3F40FFDB
:1039D0007000E0E300BE001E0000000006B83F00DB
:1039E000810313C03F40FFFF00E0E3FFFE00DE73F2
:1039F00000000000C03F00000FF400193FFFFF81EE
:103A0000E0E3FFDFC03F78000000003EFF00000061
:103A1000BC001FC0FFDF810FE37FF2FF0D7C00E0E1
:103A200000003E4000000000000000FA8F810F9C63
:103A3000BFE8FFFF7C00E0E3003E400C0000000018
:103A40000000FE00810F9C01F8FFFF8F00E0E3BF44
:103A50003E600E7C00000040007E00000F7C0300F2
:103A6000FFFF8F81E0E3BFF8B00B7C000000C03F98
:103A7000BE000000E00100000080810F03FD000097
:103A8000017C00E000C03FF007000000110000BE14
:103A900080810FE0DF0600007C60E003C03FF001A2
:103AA0000000000000003E06810FE01307000080C8
:103AB00060E003FD3FF0017C000000C006F0030061
:103AC0007F201E0000008081E0031F0720000C60A3
:103AD0000000C007F0070000A01E00040080807FE7
:103AE000031F0700000840E000F807200300000063
:103AF0001F0004F080807FE01F0500000840E00305
:103B0000F807300000000000C039F0038E7F001F6E
:103B1000F9FF017E5CE0031F0706800F000000F83C
:103B20002FC03F003E001FC0FF01FE8FE00303F3E4
:103B300002800F7C0000F807F03F0000001FC02F3C
:103B400001FE8F7F031FEFFF800F7CE00038070628
:103B50003F0000001FC06781FE0F3C0210F8FF010C
:103B60000F7CE003FE00008000000000C04F813F9A
:103B70000FFC021FF8FF01FE7CE003100000800F25
:103B8000000000FEFF013E0000001FC0FF01FE0F0D
:103B9000E00318F800800F7C0000FE00017E0000AA
:103BA000001FC0FF01FE0F000318F8FF800F7CE02C
:103BB00000FE00003E0000001FC0FF01FE0F0000DD
:103BC00018F8FF010F7CE003FE00008001000000F8
:103BD00080F801D60F00001040FF01F248E003001A
:103BE000000080010000001CFA07D6010000000060
:103BF000FE01F60FE003004000F001600000180035
:103C000007DE01000018C0F901EE0F000318C0FF25
:103C1000F0015CE0001E0000F0010000C000FC07A5
:103C2000900F00030000FE060140E00318003EF084
:103C30000F00000000FE07F0070003C000FE07F0C1
:103C400040E00300003CF0010000C007FE07F00F59
:103C50000003C000FE07F00FE00300003EF001602B
:103C600000C01F0007F00F001DC007FE07F077001F
:103C7000030000FEF00100E0C007C03DF00F0000AF
:103C8000C007FE07F057001D0000FE070100E0031B
:103C900007C03DF00E0000C005F807007F001F00C0
:103CA00000F007F000E00300C003100000008007F0
:103CB000F807000E009F0019F007F07FE0030100F5
:103CC0000310800F008807E807000E009F0011F81E
:103CD00007F07F00030100F0108007E08007C803B1
:103CE000000E00000008C007D07F00FF0300C006E0
:103CF000800FE00300F807303C0000F818C0030014
:103D00007F00FF0338C006907FE00303FE073EF00C
:103D10000000F800C007803F00FF0308C005F07FE7
:103D2000E0030338073EF07F00F800FC00003C0091
:103D3000FF03E8003A807F00031FD8003EF07FE0D9
:103D4000F8C0FD07002C000001F80000807F00F89B
:103D50001FF8003EF07FE003C0FF073E2C0000F894
:103D6000F80000007F00F303F8003E807FE0031FAF
:103D7000FF073EF00000E0C00700F03103ECFFF762
:103D8000073E80BFE0031FF8073EF07F0018C0FF2A
:103D900000F0B101F4F3F7063E80BF03031FF807FC
:103DA0003EF07FE01BC0FF07F0F10100FFFF0700BE
:103DB00080FF03FC00F80710F07FE00380FF070E90
:103DC000FF01001FFF2700D6FF03FCFFF807808FCD
:103DD0007FE003E0FF070AF001001FC82700CAEDDB
:103DE00003FCFFFF07608FFFE00380F8070AF07F06
:103DF000001FC8FF00FEFB01E0FFFF2FE08FFF0365
:103E000003A0F8070EF07FE01FF8FF073FFC01005A
:103E1000FFFFFFFFFFFF03E0F8FF3FF0F0FFFF03AE
:103E2000FFFFFF3FFF0100FFFFFFFFFFFF03E0FF7A
:103E3000FF3FF0FFFFFF03F8FFFF3FF00000FFFF31
:103E4000FFFF3F000FE0FFFF3FF0FFFFFF03F8FF22
:103E5000FF3FF0FF00FFFFFFFF370000E0FFFFFF25
:103E6000F0FFFF0F03F8FF3F1FF0FFFFFFFFFFFF13
:103E700007000000FFFFFFFFFFFF0FE0F8FF3FF02C
:103E8000F0FFFF03FFFFFF3F000000FFFFFFFF0702
:103E9000FF0FE0FFFFCFFFFFFFFF03F8FFFFDFF1A2
:103EA0000000FFFFFFFF03000FE0FFFFDFFFFFFF4A
:103EB000FF03F8FFFF3FF1FF00FFFFFF7F0000005F
:103EC000E0FFFFFFFFFFFF0F03F8FFFFFFF1FFFF22
:103ED000070080FF00000000FFFFFFFFFFFF0FFF54
:103EE000F8FFFFFFF1FFFF0300C0FFFF0000000726
:103EF000FFFF3F00FF0FFEFFFFFFFFFFFFFF03F885
:103F0000C0FFFFF100000F00807F00000FFE7F0068
:103F1000FFFFFFFFFF03F8FFEEFFF1FF00010000CE
:103F20000B000000FF1F0080FFFFFFFFFFFFFFFFF0
:103F3000FFFFFFFF020000E0000000000F008027ED
:103F4000FFFFFFFFFFFFFFFFFFFFFFFF0000E2FF9C
:103F50000000000200002000FFFFFF0FFFFFFFFF37
:103F6000FFFFFFFF00E0FFFF000000000030000047
:103F7000FFFF0300FFFFFFFFEFFFFFFEE0FFFFFF7C
:103F80000000000000000000C0130000FF3F000020
:103F90000000FEFF00E0FF0F000000000000000036
:103FA000030000003F0000C000FEFFFFE0FF0F0025
:103FB0000000000000000000000000000000C00140
:103FC000FEFFFF3FFF070000000000E000000000D0
:103FD0000000000000000000FF7F00000000000063
:103FE0000000007F00000000000000000000000052
:103FF0007F000000000080FF00007F000000000044
:104000000000000000000000000000000000FEFFB3
:10401000007F000000000000000000000000000021
:104020000000000000FE3F000C0000000000000047
:10403000000000000000000000000000F02F000061
:104040000000000000000000000000000000000070
:10405000000000002F000000000000F80000000039
:104060000000000000000000000000000000000050
:104070000000F00700000000000000000000000049
:10408000000000000000000000B00600000000007A
:104090000000000000000000000000000000000020
:1040A000A00400000000000000000000000000006C
:1040B0000000000000000000000000000000008080
:1040C00000000000000000000000000000000000F0
:1040D0000000000000008000000000000000000060
:1040E00000000000000000000000000000000000D0
:1040F00000000000000000000000000000000000C0
:1041000000000000000000000000000000000000AF
:10411000000000000000000000000000000000009F
:10412000000000000000000000000000000000008F
:10413000000000000000000000000000000000007F
:10414000000000000000000000000000000000006F
:10415000000000000000000000000000000000005F
:10416000000000000000000000000000000000004F
:10417000000000000000000000000000000000003F
:10418000000000000000000000000000000000002F
:10419000000000000000000000000000000000001F
:1041A000000000000000000000000000000000000F
:1041B00000000000000000000000000000000000FF
:1041C00000000000000000000000000000000000EF
:1041D00000000000000000000000000078F07F7F79
:1041E000FFFF1F3CF0E0C1830000307878F07FFFD4
:1041F000FDFB1F3CFFE0C1830000E0FF78F07F7F04
:104200000103060CFF60C0800000E0EFF8F07FFFC4
:10421000070F1E3CFFE1C1830000E0FF18F0FFFF25
:10422000F9F3070C3F60C0800000F0FF18F0FFFFBB
:10423000F9F3070C3060C0800000001818F0FF7F11
:104240003F7B060CFFE0C19B0000E0EF78F0E0C18F
:10425000FFFF1F3CF0E0C183000030780103061E21
:104260003060C08003060C180000C0038001030FFB
:10427000183060C03F63060C0000808F9BB3E3C31F
:10428000E183878FB063CEB8000030F8183060C08B
:104290000103060C7F60C0800000F0FF7CF0E0C1ED
:1042A00077FF7F7FF0E0C193000030787FFCF0C1A2
:1042B0001F7FDE3DF0E0C1870000307878F07FFF9F
:1042C000FDFF1F3C3060C0800000001878F07F7F49
:1042D000070F1E3CBFE3C3830000B0EF78F07FFF01
:1042E000FDFF1F3C3167DCF0000070D818F0FF7F45
:1042F000FEF9070CFF8001030000E0FF21D3BF7F20
:104300003060C08003060C180000800178F0E0C126
:10431000070F1E3CFFE0C1830000E0EF78F0E0C132
:10432000070F1E3C8FBFE3830000808378F0E0C15D
:10433000FFEF9E3CF0E0E3EF00003078C7DDF1C115
:1043400070E0C0C1F071777C00001070C3CCB06128
:104350003060E0C103060C180000800160C0FFFF60
:10436000707070703F7070700000F0FFFFFFFFFF13
:10437000FFFFFFFFFFFFFFFFFFFFFFFF78F07F7FE3
:10438000FDF91B3CFFE0C1830000E0EF18F0FFFFE8
:10439000FEF9070CFF8001030000E0FFD8B061C305
:1043A000FEFD376C80010306000060C078F07F7F5F
:1043B000FEFD1F3CFF8001030000E0FF03061C38E8
:1043C00060C080010F0C18300000800760C0BF7F04
:1043D0001830306003060C0C0000800118F0FF7FDD
:1043E000FFFF070CFFE0C1830000E0EF60C07FFF2C
:1043F000FCF81930FF8001030000E0FF60C07FFF80
:10440000FFFF1B303F60C0800000F0FF78F07F7F2F
:10441000070F1E3CFFE0C1830000E0EFF1830700BF
:10442000E79F7FFE001EFCF8000000000700000070
:10443000C00738000FC0073EE3E3C7878F71FC8FCA
:10444000FF8F18FFF0FF0FC407F8F307FC03FEF916
:104450007FFE03FFE03FFFC13FF08FFFF91FF0E356
:10446000FCFF07F800FCFF01FF00FEFFFEEF80FFEE
:1044700070FE73E00000000000000000000000007B
:10448000000000000000000000000000000000002C
:10449000000000000000000000000000000000001C
:1044A000000000000000000000000000000000000C
:1044B00000000000000000000000000000000000FC
:1044C00000000000000000000000000000000000EC
:1044D00000000000000000000000000000000000DC
:1044E00000000000000000000000000000000000CC
:1044F00000000000000000000000000000000000BC
:1045000000000000000000000000000000000000AB
:10451000000000000000000000000000000000009B
:10452000000000000000000000000000000000008B
:10453000000000000000000000000000000000007B
:10454000000000000000000000000000000000006B
:10455000000000000000000000000000000000005B
:10456000000000000000000000000000000000004B
:10457000000000000000000000000000000000003B
:10458000000000000000000000000000000000002B
:104590000000000000C0010000000000000000005A
:1045A000000000000000000000000000C003000048
:1045B00000000000000000000000000000000000FB
:1045C0000000000001000000000000C0000000002A
:1045D00000000000000000000000000000000000DB
:1045E0000000F01300000000000000000000001CAC
:1045F000000000000000000000F00F0000000000BC
:104600000000000000001800000000000000000092
:10461000E01F00000000000000000000000000009B
:1046200000000000000000003F000000000000EC5F
:1046300000020000660F0000000000000000000003
:10464000000000000000FF7F020006000F000000D5
:10465000000080FF000000000000000000FE7F005E
:1046600000060000000000020000FF0F0000000034
:1046700000000000FEFF0000060000000000021E17
:1046800000FF07000000000000000000FF01000024
:10469000000020FE00C23F06FF870000000000105F
:1046A000000000000300000000E0E1FF0000000047
:1046B000FF010000000010FF0000000000000000EB
:1046C000FDE1FF1FC00400007F0000020010FFFF9B
:1046D000000000000000000003000000000000FDDA
:1046E0000000204008FFFF7F0000000000000000E5
:1046F00000C0000000FCFC0300043F02FDFFBF3FC0
:104700000000008F0000000080000000FC3F02005D
:10471000463E0200FFFF7F00000009F3000000009A
:10472000000000007F0000402E0200FCFF3F00045C
:104730000001F0FF00000000000000000000FF008A
:10474000F47FFC3F7F3E800E01F8FFFF0000004039
:104750000000000000F30000FFFF7F00FFFFFFFFED
:10476000FCFFFFFF0000F00100000000F800000067
:10477000FF7F0000FFFFFFFFFFFFFFFF00E001FCE6
:1047800000000000000000007F000078FFFFFFFF36
:10479000FFFFFFFFF001FCFF000000000000000031
:1047A00000007800FFFFFF7FFFFFFFFF01FCFFFF1E
:1047B000000000E20000000000C007007FF8430096
:1047C000FF0500FACFFAFFFF00003E800000000066
:1047D000C0070000F84300000700F27FFAFFFFFF68
:1047E000003C800F000000001F0000007F0000C0A0
:1047F00000FEFFFFFFFFFF073C008FFB00000000F3
:1048000000000000001FC0A7F17FFC63FFFFF9FB61
:10481000F05FF8FF0000C03C000000000F80F800CF
:104820007FFC2300FFF1FFF47FFCFFC700C027F0EF
:104830000000000000F800000060001F0500F27F8B
:10484000FCFFE3FF8007F07F00000000FC00000099
:104850002002BF0000F27F00FFE3FF0503F07FFCB2
:10486000000000E00000000003FD00FEFE7F0020CD
:10487000E3FF0700F07F4CF200007003000000002F
:10488000F00078007F000002FFC73FFE7F80E3E377
:10489000003000F00000000000F80200000003F803
:1048A000C73FFE7FA0E3E3FFB000E27F000000000F
:1048B000F80200000002F8003FFE7F00A3E3FFC7FC
:1048C00000E27FE000000030070000001EC0078803
:1048D000FFFF8103E3FF3FC01E7B00E00000F0000C
:1048E000000000004004883FFF810311FF3F40FFAC
:1048F0007000E0E300BE001E0000000006B83F00AC
:10490000810313C03F40FFFF00E0E3FFFE00DE73C2
:1049100000000000C03F00000FF400193FFFFF81BE
:10492000E0E3FFDFC03F78000000003EFF00000032
:10493000BC001FC0FFDF810FE37FF2FF0D7C00E0B2
:1049400000003E4000000000000000FA8F810F9C34
:10495000BFE8FFFF7C00E0E3003E400C00000000E9
:104960000000FE00810F9C01F8FFFF8F00E0E3BF15
:104970003E600E7C00000040007E00000F7C0300C3
:10498000FFFF8F81E0E3BFF8B00B7C000000C03F69
:10499000BE000000E00100000080810F03FD000068
:1049A000017C00E000C03FF007000000110000BEE5
:1049B00080810FE0DF0600007C60E003C03FF00173
:1049C0000000000000003E06810FE0130700008099
:1049D00060E003FD3FF0017C000000C006F0030032
:1049E0007F201E0000008081E0031F0720000C6074
:1049F0000000C007F0070000A01E00040080807FB8
:104A0000031F0700000840E000F807200300000033
:104A10001F0004F080807FE01F0500000840E003D5
:104A2000F807300000000000C039F0038E7F001F3F
:104A3000F9FF017E5CE0031F0706800F000000F80D
:104A40002FC03F003E001FC0FF01FE8FE00303F3B5
:104A500002800F7C0000F807F03F0000001FC02F0D
:104A600001FE8F7F031FEFFF800F7CE000380706F9
:104A70003F0000001FC06781FE0F3C0210F8FF01DD
:104A80000F7CE003FE00008000000000C04F813F6B
:104A90000FFC021FF8FF01FE7CE003100000800FF6
:104AA000000000FEFF013E0000001FC0FF01FE0FDE
:104AB000E00318F800800F7C0000FE00017E00007B
:104AC000001FC0FF01FE0F000318F8FF800F7CE0FD
:104AD00000FE00003E0000001FC0FF01FE0F0000AE
:104AE00018F8FF010F7CE003FE00008001000000C9
:104AF00080F801D60F00001040FF01F248E00300EB
:104B0000000080010000001CFA07D6010000000030
:104B1000FE01F60FE003004000F001600000180005
:104B200007DE01000018C0F901EE0F000318C0FFF6
:104B3000F0015CE0001E0000F0010000C000FC0776
:104B4000900F00030000FE060140E00318003EF055
:104B50000F00000000FE07F0070003C000FE07F092
:104B600040E00300003CF0010000C007FE07F00F2A
:104B70000003C000FE07F00FE00300003EF00160FC
:104B800000C01F0007F00F001DC007FE07F07700F0
:104B9000030000FEF00100E0C007C03DF00F000080
:104BA000C007FE07F057001D0000FE070100E003EC
:104BB00007C03DF00E0000C005F807007F001F0091
:104BC00000F007F000E00300C003100000008007C1
:104BD000F807000E009F0019F007F07FE0030100C6
:104BE0000310800F008807E807000E009F0011F8EF
:104BF00007F07F00030100F0108007E08007C80382
:104C0000000E00000008C007D07F00FF0300C006B0
:104C1000800FE00300F807303C0000F818C00300E4
:104C20007F00FF0338C006907FE00303FE073EF0DD
:104C30000000F800C007803F00FF0308C005F07FB8
:104C4000E0030338073EF07F00F800FC00003C0062
:104C5000FF03E8003A807F00031FD8003EF07FE0AA
:104C6000F8C0FD07002C000001F80000807F00F86C
:104C70001FF8003EF07FE003C0FF073E2C0000F865
:104C8000F80000007F00F303F8003E807FE0031F80
:104C9000FF073EF00000E0C00700F03103ECFFF733
:104CA000073E80BFE0031FF8073EF07F0018C0FFFB
:104CB00000F0B101F4F3F7063E80BF03031FF807CD
:104CC0003EF07FE01BC0FF07F0F10100FFFF07008F
:104CD00080FF03FC00F80710F07FE00380FF070E61
:104CE000FF01001FFF2700D6FF03FCFFF807808F9E
:104CF0007FE003E0FF070AF001001FC82700CAEDAC
:104D000003FCFFFF07608FFFE00380F8070AF07FD6
:104D1000001FC8FF00FEFB01E0FFFF2FE08FFF0335
:104D200003A0F8070EF07FE01FF8FF073FFC01002B
:104D3000FFFFFFFFFFFF03E0F8FF3FF0F0FFFF037F
:104D4000FFFFFF3FFF0100FFFFFFFFFFFF03E0FF4B
:104D5000FF3FF0FFFFFF03F8FFFF3FF00000FFFF02
:104D6000FFFF3F000FE0FFFF3FF0FFFFFF03F8FFF3
:104D7000FF3FF0FF00FFFFFFFF370000E0FFFFFFF6
:104D8000F0FFFF0F03F8FF3F1FF0FFFFFFFFFFFFE4
:104D900007000000FFFFFFFFFFFF0FE0F8FF3FF0FD
:104DA000F0FFFF03FFFFFF3F000000FFFFFFFF07D3
:104DB000FF0FE0FFFFCFFFFFFFFF03F8FFFFDFF173
:104DC0000000FFFFFFFF03000FE0FFFFDFFFFFFF1B
:104DD000FF03F8FFFF3FF1FF00FFFFFF7F00000030
:104DE000E0FFFFFFFFFFFF0F03F8FFFFFFF1FFFFF3
:104DF000070080FF00000000FFFFFFFFFFFF0FFF25
:104E0000F8FFFFFFF1FFFF0300C0FFFF00000007F6
:104E1000FFFF3F00FF0FFEFFFFFFFFFFFFFF03F855
:104E2000C0FFFFF100000F00807F00000FFE7F0039
:104E3000FFFFFFFFFF03F8FFEEFFF1FF000100009F
:104E40000B000000FF1F0080FFFFFFFFFFFFFFFFC1
:104E5000FFFFFFFF020000E0000000000F008027BE
:104E6000FFFFFFFFFFFFFFFFFFFFFFFF0000E2FF6D
:104E70000000000200002000FFFFFF0FFFFFFFFF08
:104E8000FFFFFFFF00E0FFFF000000000030000018
:104E9000FFFF0300FFFFFFFFEFFFFFFEE0FFFFFF4D
:104EA0000000000000000000C0130000FF3F0000F1
:104EB0000000FEFF00E0FF0F000000000000000007
:104EC000030000003F0000C000FEFFFFE0FF0F00F6
:104ED0000000000000000000000000000000C00111
:104EE000FEFFFF3FFF070000000000E000000000A1
:104EF0000000000000000000FF7F00000000000034
:104F00000000007F00000000000000000000000022
:104F10007F000000000080FF00007F000000000014
:104F20000000000000000000000000000000FEFF84
:104F3000007F0000000000000000000000000000F2
:104F40000000000000FE3F000C0000000000000018
:104F5000000000000000000000000000F02F000032
:104F60000000000000000000000000000000000041
:104F7000000000002F000000000000F8000000000A
:104F80000000000000000000000000000000000021
:104F90000000F0070000000000000000000000001A
:104FA000000000000000000000B00600000000004B
:104FB00000000000000000000000000000000000F1
:104FC000A00400000000000000000000000000003D
:104FD0000000000000000000000000000000008051
:104FE00000000000000000000000000000000000C1
:104FF0000000000000008000000000000000000031
:1050000000000000000000000000000000000000A0
:105010000000000000000000000000000000000090
:105020000000000000000000000000000000000080
:105030000000000000000000000000000000000070
:105040000000000000000000000000000000000060
:105050000000000000000000000000000000000050
:105060000000000000000000000000000000000040
:105070000000000000000000000000000000000030
:105080000000000000000000000000000000000020
:105090000000000000000000000000000000000010
:1050A0000000000000000000000000000000000000
:1050B00000000000000000000000000000000000F0
:1050C00000000000000000000000000000000000E0
:1050D00000000000000000000000000000000000D0
:1050E00000000000000000000000000000000000C0
:0C50F000000000000000000000000000B4
:04000005080000ED02
:00000001FF
