:020000040800F2
:1000000000060020ED000008F5000008F7000008D9
:10001000F9000008FB000008FD00000800000000D7
:10002000000000000000000000000000FF000008C9
:10003000010100080000000003010008050100089C
:100040000701000807010008070100080701000870
:100050000701000807010008070100081F01000848
:100060001F0100081F010008910300081F0100087C
:100070001F0100081F0100081F0100081F010008E0
:100080001F0100081F0100081F0100081F010008D0
:100090001F0100081F0100081F0100081F010008C0
:1000A0001F0100081F0100081F0100081F010008B0
:1000B0001F0100081F0100084F0100088B01000804
:1000C0008B0100088B0100088B0100088B010008E0
:1000D0008B0100088B0100088B0100088B010008D0
:1000E0008B010008A5010008A501000831488047E0
:1000F00031480047FEE7FEE7FEE7FEE7FEE7FEE7E2
:10010000FEE7FEE7FEE70FB52C48016841F001016C
:1001100001602B48016881F0020101600FBD0FB53D
:100120002848016921F00101016127480168A1F116
:1001300001010160002909D12448016841F0010151
:1001400001602048016821F0010101600FBD0FB579
:100150001F48016921F0010101614FF00050016861
:1001600001F101011B4A914208BF002101601A48B8
:100170000168032908D119480168012904D11848E8
:10018000016801F1010101600FBD2DE901500B482B
:100190004FF4005101600D4B1C6824F001041C60F9
:1001A000BDE80190FEE700000E480F490F4A104BD2
:1001B00070470000290300083D0F000814040140A7
:1001C0000C08014000040040200000200C0C0140FD
:1001D000000800408051010024000020360000206B
:1001E0003200002000000020000600200002002055
:1001F00000020020704770477047000080B500F093
:1002000001F880BD84B000200390029041F200010B
:10021000C4F20201086840F480300860FFE741F250
:100220000000C4F20200006800F40030029003985D
:1002300001300390FFE702990020019039B9FFE7F0
:100240000398B0F5A06018BF01200190FFE7019866
:10025000C0070028E3D1FFE741F20000C4F202002A
:1002600000688003002803D5FFE70120029002E028
:1002700000200290FFE70298012851D1FFE742F2E7
:100280000001C4F20201086840F01000086008682C
:1002900020F007000860086840F00200086041F2A2
:1002A0000401C4F20201009108680860086808604F
:1002B000086840F480600860086820F47C100860DA
:1002C000086840F4E810086041F20001C4F202013D
:1002D000086840F080700860FFE741F20000C4F257
:1002E000020000688001002801D4FFE7F5E741F231
:1002F0000401C4F20201086820F0030008600868E5
:1003000040F002000860FFE741F20400C4F202007E
:10031000006800F00C00082801D0FFE7F4E700E0D7
:10032000FFE704B07047000080B541F20002C4F25C
:100330000202106840F00100106041F20401C4F2B2
:10034000020108680023CFF6FF0318400860106818
:100350004FF6FF73CFF6F66318401060106820F474
:1003600080201060086820F4FE00086041F2080157
:10037000C4F202014FF41F000860FFF73FFF4EF682
:100380000851CEF200014FF00060086080BD00000F
:1003900003B50948016841F0100101600748016890
:1003A000002907D00648016801F10101042908BFAE
:1003B0000021016003BD000014040140360000204C
:1003C0002400002007B59249086820F48070086076
:1003D000086820F0FF0002F0FF0240EA0200086017
:1003E0008B49086840F48070086007BD03B58849F0
:1003F000086820F400700860FFF7E4FF03BD03B550
:100400008349086840F400700860FFF7DBFF03BD14
:1004100007B57F49086840F40060086000F0CCF838
:100420007B49086820F40060086000F0C5F878494E
:10043000086840F40060086000F0BEF8744908687D
:1004400040F4806008607249086840F48070086079
:100450006F49086820F4806008604FF0C502FFF71C
:10046000C5FF4FF07F02FFF7CAFF4FF00002FFF712
:10047000C6FF4FF03602FFF7B9FF4FF02802FFF733
:10048000BEFF4FF03A02FFF7B1FF4FF05502FFF702
:10049000B6FF4FF01102FFF7A9FF00F08DF84FF003
:1004A0002902FFF7A3FF00F087F84FF02002FFF7C3
:1004B0009DFF4FF02C02FFF799FF07BD2DE9FF5F6D
:1004C000A1F10101A4F101044FF02A02FFF78EFF10
:1004D0004FEA1022FFF793FF0246FFF790FF4FEA23
:1004E0001122FFF78CFF0A46FFF789FF4FF02B021E
:1004F000FFF77CFF4FEA1322FFF781FF1A46FFF751
:100500007EFF4FEA1422FFF77AFF2246FFF777FFBC
:100510004FF02C02FFF76AFFBDE8FF9F2DE91F4453
:100520003B4B1C6824F400441C600B4600F10101A5
:1005300003F10104FFF7C2FF4FF02C02FFF756FF53
:100540004FEA1A22FFF75BFF5246FFF758FFBDE85C
:100550001F842DE9FF5F0E4619463346FFF7AEFFB5
:10056000091AE41A04FB01F54FEA1A22FFF747FFC4
:100570005246FFF744FF6D1E002DF5DABDE8FF9FE0
:100580002DE9FF5F2349086840F004000860224815
:1005900001684FF011310160204801684FF01131BE
:1005A00001601B4908684FF0000040F4FE400860FD
:1005B000FFF72EFFBDE8FF9F2DE90041DFF86080C7
:1005C000B8F10108B8F1000FFADABDE800812DE9B1
:1005D0000041DFF84C80B8F10208B8F1000FFADAF8
:1005E000BDE800812DE90041DFF83480B8F57A7864
:1005F000B8F1000FFADABDE800812DE90041DFF81B
:100600002080B8F16408B8F1000FFADABDE8008183
:100610000C08014018100240000801400408014085
:10062000046018002DE9FF5F5E4667464FF0000A40
:100630003046394606F1320307F15004FFF789FFCF
:100640005E46674606F10A0007F10A0106F1280333
:1006500007F146044FF6FF7AFFF77BFFBDE8FF9FE7
:100660002DE9FF5F5E4667464FF0000A3046394687
:1006700006F1140307F12804FFF76BFF5E46674697
:1006800006F1050007F10A0106F10F0307F11E0448
:100690004FF6FF7AFFF75DFFBDE8FF9F2DE9FF5F93
:1006A0005E4667463046394606F1320307F150048C
:1006B000FFF74FFF5E4667464FF0000A06F119004C
:1006C000394606F1230307F15004FFF742FFBDE866
:1006D000FF9F2DE9FF5F5E4667463046394606F1CB
:1006E000140307F12804FFF734FF5E4667464FF016
:1006F000000A06F10500394606F10F0307F1280448
:10070000FFF727FFBDE8FF9F2DE9FF5F5E466746C5
:100710004FF0000A3046394606F1320307F1500423
:10072000FFF717FF5E466746304607F10A0106F1FC
:10073000280307F123044FF6FF7AFFF70AFF5E460E
:10074000674606F10A0007F12D0106F1320307F1B1
:1007500046044FF6FF7AFFF7FCFEBDE8FF9F2DE948
:10076000FF5F5E4667464FF0000A3046394606F1A5
:10077000140307F12804FFF7ECFE5E466746304697
:1007800007F10A0106F10A0307F10F044FF6FF7A99
:10079000FFF7DFFE5E46674606F10A0007F1190122
:1007A00006F11E0307F11E044FF6FF7AFFF7D1FE94
:1007B000BDE8FF9F2DE9FF5F5E4667464FF0000AE8
:1007C0003046394606F1320307F15004FFF7C1FE07
:1007D0005E466746304607F10A0106F1280307F135
:1007E00023044FF6FF7AFFF7B4FE5E4667463046B5
:1007F00007F12D0106F1280307F146044FF6FF7AB1
:10080000FFF7A7FEBDE8FF9F2DE9FF5F5E46674645
:100810004FF0000A3046394606F1140307F1280468
:10082000FFF797FE5E466746304607F10A0106F17C
:100830000A0307F10F044FF6FF7AFFF78AFE5E46C0
:100840006746304607F1190106F10A0307F11E0455
:100850004FF6FF7AFFF77DFEBDE8FF9F2DE9FF5FB2
:100860005E4667464FF0000A3046394606F13203CD
:1008700007F15004FFF76DFE5E46674606F10A0079
:10088000394606F1280307F123044FF6FF7AFFF7F4
:1008900060FE5E466746304607F12D0106F12803EB
:1008A00007F150044FF6FF7AFFF753FEBDE8FF9FB4
:1008B0002DE9FF5F5E4667464FF0000A3046394635
:1008C00006F1140307F12804FFF743FE5E4667466E
:1008D00006F10500394606F10F0307F10F044FF644
:1008E000FF7AFFF736FE5E466746304607F119018C
:1008F00006F10F0307F128044FF6FF7AFFF729FEF0
:10090000BDE8FF9F2DE9FF5F5E4667464FF0000A96
:100910003046394606F1320307F15004FFF719FE5D
:100920005E46674606F10A0007F10A0106F1320346
:1009300007F123044FF6FF7AFFF70BFE5E4667468A
:10094000304607F12D0106F1280307F146044FF662
:10095000FF7AFFF7FEFDBDE8FF9F2DE9FF5F5E46D2
:1009600067464FF0000A3046394606F1140307F196
:100970002804FFF7EEFD5E46674606F1050007F125
:100980000A0106F1140307F10F044FF6FF7AFFF78F
:10099000E0FD5E466746304607F1190106F10F0398
:1009A00007F11E044FF6FF7AFFF7D3FDBDE8FF9F66
:1009B0002DE9FF5F5E4667464FF0000A3046394634
:1009C00006F1320307F15004FFF7C3FD5E466746A8
:1009D00006F10A0007F10A0106F1320307F12304C8
:1009E0004FF6FF7AFFF7B5FD5E46674606F10A004F
:1009F00007F12D0106F1280307F146044FF6FF7AAF
:100A0000FFF7A7FDBDE8FF9F2DE9FF5F5E46674644
:100A10004FF0000A3046394606F1140307F1280466
:100A2000FFF797FD5E46674606F10A0007F10A01E7
:100A300006F1140307F10F044FF6FF7AFFF789FD63
:100A40005E46674606F10A0007F1190106F10F0339
:100A500007F11E044FF6FF7AFFF77BFDBDE8FF9F0D
:100A60002DE9FF5F5E4667464FF0000A3046394683
:100A700006F1320307F15004FFF76BFD5E4667464F
:100A8000304607F10A0106F1280307F150044FF63A
:100A9000FF7AFFF75EFDBDE8FF9F2DE9FF5F5E4631
:100AA00067464FF0000A3046394606F1140307F155
:100AB0002804FFF74EFD5E466746304607F1050104
:100AC00006F10F0307F128044FF6FF7AFFF741FD07
:100AD000BDE8FF9F2DE9FF5F5E4667464FF0000AC5
:100AE0003046394606F1320307F15004FFF731FD75
:100AF0005E46674606F10A0007F10A0106F128037F
:100B000007F123044FF6FF7AFFF723FD5E466746A1
:100B100006F10A0007F12D0106F1280307F146044A
:100B20004FF6FF7AFFF715FDBDE8FF9F2DE9FF5F48
:100B30005E4667464FF0000A3046394606F1140318
:100B400007F12804FFF705FD5E46674606F105003C
:100B500007F10A0106F10F0307F10F044FF6FF7AC0
:100B6000FFF7F7FC5E46674606F1050007F119013D
:100B700006F10F0307F11E044FF6FF7AFFF7E9FCB9
:100B8000BDE8FF9F2DE9FF5F5E4667464FF0000A14
:100B90003046394606F1320307F15004FFF7D9FC1D
:100BA0005E46674606F10A0007F10A0106F12803CE
:100BB00007F123044FF6FF7AFFF7CBFC5E4667464A
:100BC000304607F12D0106F1280307F146044FF6E0
:100BD000FF7AFFF7BEFCBDE8FF9F2DE9FF5F5E4691
:100BE00067464FF0000A3046394606F1140307F114
:100BF0002804FFF7AEFC5E46674606F1050007F1E4
:100C00000A0106F10F0307F10F044FF6FF7AFFF711
:100C1000A0FC5E466746304607F1190106F10F0356
:100C200007F11E044FF6FF7AFFF793FCBDE8FF9F24
:100C30002DE9FF5F4FF0B9004FF084014FF0C4037E
:100C40004FF091044FF0000AFFF783FC4FF0B9001A
:100C50004FF0A0014FF0C4034FF0AD044FF0000A75
:100C6000FFF777FCBDE8FF9F2DE9FF5F4FF4A5700C
:100C70004FF0B50140F255134FF0C2044FF0000A97
:100C8000FFF767FCBDE8FF9F2DE9FF5FB346BC4659
:100C9000002C08BFFFF7C6FC012C08BFFFF7FEFCC5
:100CA000022C08BFFFF730FD032C08BFFFF782FDC1
:100CB000042C08BFFFF7D2FD052C08BFFFF722FE6A
:100CC000062C08BFFFF774FE072C08BFFFF7C8FE0D
:100CD000082C08BFFFF7FEFE092C08BFFFF752FFE4
:100CE000BDE8FF9F2DE9FF5FB346BC46002C08BF5F
:100CF000FFF7B6FC012C08BFFFF7EBFC022C08BF86
:100D0000FFF72DFD032C08BFFFF77EFD042C08BF65
:100D1000FFF7CEFD052C08BFFFF71FFE062C08BF0E
:100D2000FFF772FE072C08BFFFF7B7FE082C08BFBD
:100D3000FFF7FCFE092C08BFFFF74FFFBDE8FF9F40
:100D40002DE9FF5F4FF0005211684FF03C02B1FBFC
:100D5000F2F303FB02F4A1EB0405744ED6F8008015
:100D6000454516D035604FF00A02B5FBF2F6344621
:100D70004FF4AF764FF09A07FFF7B4FF04FB02F78A
:100D8000A5EB070844464FF4BE764FF09A07FFF7ED
:100D9000A9FF4FF03C02B3FBF2F909FB02FAA3EB07
:100DA0000A0BDFF88C81D8F80060B34517D0C8F87B
:100DB00000B04FF00A02BBFBF2FC64464FF0D206D3
:100DC0004FF07207FFF760FF0CFB02F8ABEB080A6D
:100DD000544640F211164FF07207FFF755FFDFF847
:100DE0005481D8F80060B14514D0C8F800B0B9FB00
:100DF000F2FA54464FF03E064FF07207FFF744FFF9
:100E00000AFB02FBA9EB0B044FF07D064FF07207C3
:100E1000FFF73AFFBDE8FF9F2DE9FF5F4FF00004A9
:100E20004FF03E064FF07207FFF72EFF4FF0000421
:100E30004FF07D064FF07207FFF726FF4FF00004DA
:100E40004FF0D2064FF07207FFF71EFF4FF000047D
:100E500040F211164FF07207FFF716FFBDE8FF9F33
:100E60002DE9FF5F344A11684FF03C02B1FBF2F309
:100E700003FB02F4A1EB04054FF00A02B5FBF2F606
:100E800034464FF4AF764FF09A07FFF72BFF04FB81
:100E900002F7A5EB070844464FF4BE764FF09A07D9
:100EA000FFF720FF4FF03C02B3FBF2F909FB02FA17
:100EB000A3EB0A0BDFF87880D8F80060B34517D0B1
:100EC000C8F800B04FF00A02BBFBF2FC64464FF0DA
:100ED000D2064FF07207FFF7D7FE0CFB02F8ABEB20
:100EE000080A544640F211164FF07207FFF7CCFE85
:100EF000DFF84080D8F80060B14514D0C8F800B0E1
:100F0000B9FBF2FA54464FF03E064FF07207FFF776
:100F1000BBFE0AFB02FBA9EB0B044FF07D064FF072
:100F20007207FFF7B1FEBDE8FF9F0000120000202E
:100F300008000020040000202000002000F067FFCF
:100F40004FF0005108684FF0000008602149086820
:100F50004FF000000860204908684FF0000008606A
:100F60001E4908684FF0000008601D4908684FF0EE
:100F70000A0008601B4908684FF00000086000F094
:100F8000C2F800F0A1F8FFF7FBFA1748016841F03A
:100F9000080101601548016821F00F0141F00301CB
:100FA00001604FF000004FF4F0734FF000014FF478
:100FB000A0744FF6FF7AFFF7CCFAFFF72DFF09492F
:100FC0000868002808BFFFF7BBFE002818BFFFF71E
:100FD00047FFF4E704000020080000201200002072
:100FE000200000202400002018100240000C0140C6
:100FF0002DE9FF5F1C48016841F0C05101601B48AA
:10100000016841F480710160016811F4807FFBD0B8
:101010001748016841F001010160016811F0020FF9
:10102000FBD0016821F4407141F48071016041F40A
:10103000004101600F48016811F0200FFBD041F022
:10104000100101600C484FF00001816047F6FF710C
:10105000C1600848016821F010010160016811F0C9
:10106000200FFBD0BDE8FF9F1C1002400070004025
:101070002010024004280040002800400FB53148ED
:10108000016841F0080101602F48016821F00F015B
:1010900041F0010101602D48016841F0010101604A
:1010A0002B48016841F0010101604FF080404FF092
:1010B000480181624FF6FF71C1624FF080400168C4
:1010C00041F0010101600FBD2DE9FF5F204801687B
:1010D00041F0020101601F484FF47A4101601E484F
:1010E00040F2654101601D48016841F00101016065
:1010F0001B484FF0005101601A48016841F001019E
:101100000160BDE8FF9F2DE9FF5F1148016841F0D4
:101110000401016014484FF47A410160134840F221
:10112000654101601248016841F0010101600C480D
:101130004FF0804101600F48016841F001010160FA
:10114000BDE8FF9F18100240000C01400C0C01404C
:101150001C100240280400402C0400400C040040F5
:1011600000E100E000040040280800402C08004096
:101170000C080040000800402DE9FF5F1748016897
:1011800041F0010141F0080101601548016821F4B6
:10119000700141F4000101601248016821F400511E
:1011A00001601148016821F0F00141F01001016077
:1011B0000E48016841F4005101600D48016841F496
:1011C000005101600B48016821F4005101600A4898
:1011D000016841F480710160BDE8FF9F1810024072
:1011E000040C01400C0C01401400014000040140BB
:1011F0000C0401400804014004E100E007B59249F5
:10120000086820F480700860086820F0FF0002F091
:10121000FF0240EA020008608B49086840F48070D1
:10122000086007BD03B58849086820F400700860AD
:10123000FFF7E4FF03BD03B58349086840F400707D
:101240000860FFF7DBFF03BD07B57F49086840F47E
:101250000060086000F0CCF87B49086820F400606A
:10126000086000F0C5F87849086840F4006008603C
:1012700000F0BEF87449086840F480600860724964
:10128000086840F4807008606F49086820F4806046
:1012900008604FF0C502FFF7C5FF4FF07F02FFF770
:1012A000CAFF4FF00002FFF7C6FF4FF03602FFF70C
:1012B000B9FF4FF02802FFF7BEFF4FF03A02FFF7E9
:1012C000B1FF4FF05502FFF7B6FF4FF01102FFF7E5
:1012D000A9FF00F08DF84FF02902FFF7A3FF00F0FF
:1012E00087F84FF02002FFF79DFF4FF02C02FFF729
:1012F00099FF07BD2DE9FF5FA1F10101A4F10104F0
:101300004FF02A02FFF78EFF4FEA1022FFF793FFFC
:101310000246FFF790FF4FEA1122FFF78CFF0A46C3
:10132000FFF789FF4FF02B02FFF77CFF4FEA1322F4
:10133000FFF781FF1A46FFF77EFF4FEA1422FFF7FF
:101340007AFF2246FFF777FF4FF02C02FFF76AFF84
:10135000BDE8FF9F2DE91F443B4B1C6824F400446B
:101360001C600B4600F1010103F10104FFF7C2FF0D
:101370004FF02C02FFF756FF4FEA1A22FFF75BFFF0
:101380005246FFF758FFBDE81F842DE9FF5F0E4668
:1013900019463346FFF7AEFF091AE41A04FB01F5BC
:1013A0004FEA1A22FFF747FF5246FFF744FF6D1E30
:1013B000002DF5DABDE8FF9F2DE9FF5F234908689E
:1013C00040F004000860224801684FF011310160CC
:1013D000204801684FF0113101601B4908684FF047
:1013E000000040F4FE400860FFF72EFFBDE8FF9FBD
:1013F0002DE90041DFF86080B8F10108B8F1000F75
:10140000FADABDE800812DE90041DFF84C80B8F13F
:101410000208B8F1000FFADABDE800812DE90041B9
:10142000DFF83480B8F57A78B8F1000FFADABDE861
:1014300000812DE90041DFF82080B8F16408B8F19F
:10144000000FFADABDE800810C08014018100240D4
:101450000008014004080140046018002DE9FF5F06
:101460005E4667464FF0000A3046394606F13203C1
:1014700007F15004FFF789FF5E46674606F10A0050
:1014800007F10A0106F1280307F146044FF6FF7A37
:10149000FFF77BFFBDE8FF9F2DE9FF5F5E466746D4
:1014A0004FF0000A3046394606F1140307F12804CC
:1014B000FFF76BFF5E46674606F1050007F10A017C
:1014C00006F10F0307F11E044FF6FF7AFFF75DFFE9
:1014D000BDE8FF9F2DE9FF5F5E466746304639460F
:1014E00006F1320307F15004FFF74FFF5E466746EF
:1014F0004FF0000A06F11900394606F1230307F1FF
:101500005004FFF742FFBDE8FF9F2DE9FF5F5E46F5
:1015100067463046394606F1140307F12804FFF701
:1015200034FF5E4667464FF0000A06F10500394673
:1015300006F10F0307F12804FFF727FFBDE8FF9F1F
:101540002DE9FF5F5E4667464FF0000A3046394698
:1015500006F1320307F15004FFF717FF5E466746B6
:10156000304607F10A0106F1280307F123044FF67C
:10157000FF7AFFF70AFF5E46674606F10A0007F1A9
:101580002D0106F1320307F146044FF6FF7AFFF70B
:10159000FCFEBDE8FF9F2DE9FF5F5E4667464FF00A
:1015A000000A3046394606F1140307F12804FFF714
:1015B000ECFE5E466746304607F10A0106F10A0373
:1015C00007F10F044FF6FF7AFFF7DFFE5E4667462E
:1015D00006F10A0007F1190106F11E0307F11E04C6
:1015E0004FF6FF7AFFF7D1FEBDE8FF9F2DE9FF5FC1
:1015F0005E4667464FF0000A3046394606F1320330
:1016000007F15004FFF7C1FE5E466746304607F11A
:101610000A0106F1280307F123044FF6FF7AFFF7CA
:10162000B4FE5E466746304607F12D0106F12803F9
:1016300007F146044FF6FF7AFFF7A7FEBDE8FF9FCC
:101640002DE9FF5F5E4667464FF0000A3046394697
:1016500006F1140307F12804FFF797FE5E4667467C
:10166000304607F10A0106F10A0307F10F044FF6AD
:10167000FF7AFFF78AFE5E466746304607F119019A
:1016800006F10A0307F11E044FF6FF7AFFF77DFE0D
:10169000BDE8FF9F2DE9FF5F5E4667464FF0000AF9
:1016A0003046394606F1320307F15004FFF76DFE6C
:1016B0005E46674606F10A00394606F1280307F13F
:1016C00023044FF6FF7AFFF760FE5E46674630461A
:1016D00007F12D0106F1280307F150044FF6FF7AB8
:1016E000FFF753FEBDE8FF9F2DE9FF5F5E466746AB
:1016F0004FF0000A3046394606F1140307F128047A
:10170000FFF743FE5E46674606F10500394606F1DF
:101710000F0307F10F044FF6FF7AFFF736FE5E4620
:101720006746304607F1190106F10F0307F1280457
:101730004FF6FF7AFFF729FEBDE8FF9F2DE9FF5F17
:101740005E4667464FF0000A3046394606F13203DE
:1017500007F15004FFF719FE5E46674606F10A00DE
:1017600007F10A0106F1320307F123044FF6FF7A6D
:10177000FFF70BFE5E466746304607F12D0106F186
:10178000280307F146044FF6FF7AFFF7FEFDBDE898
:10179000FF9F2DE9FF5F5E4667464FF0000A304627
:1017A000394606F1140307F12804FFF7EEFD5E4603
:1017B000674606F1050007F10A0106F1140307F177
:1017C0000F044FF6FF7AFFF7E0FD5E4667463046AE
:1017D00007F1190106F10F0307F11E044FF6FF7A16
:1017E000FFF7D3FDBDE8FF9F2DE9FF5F5E4667462B
:1017F0004FF0000A3046394606F1320307F1500433
:10180000FFF7C3FD5E46674606F10A0007F10A01CD
:1018100006F1320307F123044FF6FF7AFFF7B5FD17
:101820005E46674606F10A0007F12D0106F128031E
:1018300007F146044FF6FF7AFFF7A7FDBDE8FF9FCB
:101840002DE9FF5F5E4667464FF0000A3046394695
:1018500006F1140307F12804FFF797FD5E4667467B
:1018600006F10A0007F10A0106F1140307F10F045B
:101870004FF6FF7AFFF789FD5E46674606F10A00DC
:1018800007F1190106F10F0307F11E044FF6FF7A65
:10189000FFF77BFDBDE8FF9F2DE9FF5F5E466746D2
:1018A0004FF0000A3046394606F1320307F1500482
:1018B000FFF76BFD5E466746304607F10A0106F109
:1018C000280307F150044FF6FF7AFFF75EFDBDE8ED
:1018D000FF9F2DE9FF5F5E4667464FF0000A3046E6
:1018E000394606F1140307F12804FFF74EFD5E4662
:1018F0006746304607F1050106F10F0307F128049A
:101900004FF6FF7AFFF741FDBDE8FF9F2DE9FF5F2E
:101910005E4667464FF0000A3046394606F132030C
:1019200007F15004FFF731FD5E46674606F10A00F5
:1019300007F10A0106F1280307F123044FF6FF7AA5
:10194000FFF723FD5E46674606F10A0007F12D0109
:1019500006F1280307F146044FF6FF7AFFF715FD5D
:10196000BDE8FF9F2DE9FF5F5E4667464FF0000A26
:101970003046394606F1140307F12804FFF705FD48
:101980005E46674606F1050007F10A0106F10F03FE
:1019900007F10F044FF6FF7AFFF7F7FC5E46674644
:1019A00006F1050007F1190106F10F0307F11E0406
:1019B0004FF6FF7AFFF7E9FCBDE8FF9F2DE9FF5FD7
:1019C0005E4667464FF0000A3046394606F132035C
:1019D00007F15004FFF7D9FC5E46674606F10A009E
:1019E00007F10A0106F1280307F123044FF6FF7AF5
:1019F000FFF7CBFC5E466746304607F12D0106F146
:101A0000280307F146044FF6FF7AFFF7BEFCBDE856
:101A1000FF9F2DE9FF5F5E4667464FF0000A3046A4
:101A2000394606F1140307F12804FFF7AEFC5E46C1
:101A3000674606F1050007F10A0106F10F0307F1F9
:101A40000F044FF6FF7AFFF7A0FC5E46674630466C
:101A500007F1190106F10F0307F11E044FF6FF7A93
:101A6000FFF793FCBDE8FF9F2DE9FF5F4FF0B90042
:101A70004FF084014FF0C4034FF091044FF0000A7F
:101A8000FFF783FC4FF0B9004FF0A0014FF0C40303
:101A90004FF0AD044FF0000AFFF777FCBDE8FF9F61
:101AA0002DE9FF5F4FF4A5704FF0B50140F25513DB
:101AB0004FF0C2044FF0000AFFF767FCBDE8FF9F3C
:101AC0002DE9FF5FB346BC46002C08BFFFF7C6FCFC
:101AD000012C08BFFFF7FEFC022C08BFFFF730FD0A
:101AE000032C08BFFFF782FD042C08BFFFF7D2FDCF
:101AF000052C08BFFFF722FE062C08BFFFF774FE77
:101B0000072C08BFFFF7C8FE082C08BFFFF7FEFE32
:101B1000092C08BFFFF752FFBDE8FF9F2DE9FF5FCB
:101B2000B346BC46002C08BFFFF7B6FC012C08BF2B
:101B3000FFF7EBFC022C08BFFFF72DFD032C08BFBD
:101B4000FFF77EFD042C08BFFFF7CEFD052C08BF74
:101B5000FFF71FFE062C08BFFFF772FE072C08BF19
:101B6000FFF7B7FE082C08BFFFF7FCFE092C08BFE3
:101B7000FFF74FFFBDE8FF9F2DE9FF5F4FF00052D9
:101B800011684FF03C02B1FBF2F303FB02F4A1EB4E
:101B90000405744ED6F80080454516D035604FF0E8
:101BA0000A02B5FBF2F634464FF4AF764FF09A07CF
:101BB000FFF7B4FF04FB02F7A5EB070844464FF418
:101BC000BE764FF09A07FFF7A9FF4FF03C02B3FB38
:101BD000F2F909FB02FAA3EB0A0BDFF88C81D8F8C3
:101BE0000060B34517D0C8F800B04FF00A02BBFB45
:101BF000F2FC64464FF0D2064FF07207FFF760FF29
:101C00000CFB02F8ABEB080A544640F211164FF0F9
:101C10007207FFF755FFDFF85481D8F80060B1452F
:101C200014D0C8F800B0B9FBF2FA54464FF03E06A3
:101C30004FF07207FFF744FF0AFB02FBA9EB0B040E
:101C40004FF07D064FF07207FFF73AFFBDE8FF9FA8
:101C50002DE9FF5F4FF000044FF03E064FF0720792
:101C6000FFF72EFF4FF000044FF07D064FF0720794
:101C7000FFF726FF4FF000044FF0D2064FF0720737
:101C8000FFF71EFF4FF0000440F211164FF07207ED
:101C9000FFF716FFBDE8FF9F2DE9FF5F344A11688B
:101CA0004FF03C02B1FBF2F303FB02F4A1EB04059D
:101CB0004FF00A02B5FBF2F634464FF4AF764FF020
:101CC0009A07FFF72BFF04FB02F7A5EB0708444632
:101CD0004FF4BE764FF09A07FFF720FF4FF03C021B
:101CE000B3FBF2F909FB02FAA3EB0A0BDFF87880E9
:101CF000D8F80060B34517D0C8F800B04FF00A021A
:101D0000BBFBF2FC64464FF0D2064FF07207FFF7C0
:101D1000D7FE0CFB02F8ABEB080A544640F2111652
:101D20004FF07207FFF7CCFEDFF84080D8F8006074
:101D3000B14514D0C8F800B0B9FBF2FA54464FF0E0
:101D40003E064FF07207FFF7BBFE0AFB02FBA9EB52
:101D50000B044FF07D064FF07207FFF7B1FEBDE8B0
:101D6000FF9F000012000020080000200400002057
:101D7000200000202DE9FF5F3E48016841F0080186
:101D800041F0010101603C48016821F4702141F4F7
:101D9000002101603948016821F00F0141F0010183
:101DA00001603748016841F0100101603548016861
:101DB00041F0100101603448016821F01001016018
:101DC0003248016841F480610160BDE8FF9F2DE960
:101DD000FF5F2948016821F4700141F400010160AE
:101DE0002B48016841F020010160BDE8FF9F2DE90B
:101DF000FF5F2148016821F0706141F000610160DE
:101E00002348016841F040010160BDE8FF9F2DE9D2
:101E1000FF5FFFF7AFFFFFF7DAFFFFF7E8FFBDE86F
:101E2000FF9F2DE9FF5F1B48016811F0000F13D1E0
:101E300019480168002905D11848016800290429BA
:101E400015D009E0012905D1032905D14FF004017E
:101E500001600CE004290AD00E48016811F0000F5F
:101E6000E1D10E48016801F101010160DBE7BDE845
:101E7000FF9F000018100240000C01400C000140C0
:101E800000040140080401400C04014000E100E0AE
:101E90000C0C0140080C01402400002036000020FA
:04000005080000ED02
:00000001FF
